{
  "contractName": "AddressVotes",
  "abi": [
    {
      "constant": false,
      "inputs": [
        {
          "name": "self",
          "type": "AddressVotes.Data storage"
        },
        {
          "name": "voter",
          "type": "address"
        }
      ],
      "name": "insert",
      "outputs": [
        {
          "name": "",
          "type": "bool"
        }
      ],
      "payable": false,
      "stateMutability": "nonpayable",
      "type": "function"
    },
    {
      "constant": true,
      "inputs": [
        {
          "name": "self",
          "type": "AddressVotes.Data storage"
        }
      ],
      "name": "count",
      "outputs": [
        {
          "name": "",
          "type": "uint256"
        }
      ],
      "payable": false,
      "stateMutability": "view",
      "type": "function"
    },
    {
      "constant": false,
      "inputs": [
        {
          "name": "self",
          "type": "AddressVotes.Data storage"
        },
        {
          "name": "voter",
          "type": "address"
        }
      ],
      "name": "remove",
      "outputs": [
        {
          "name": "",
          "type": "bool"
        }
      ],
      "payable": false,
      "stateMutability": "nonpayable",
      "type": "function"
    },
    {
      "constant": true,
      "inputs": [
        {
          "name": "self",
          "type": "AddressVotes.Data storage"
        },
        {
          "name": "voter",
          "type": "address"
        }
      ],
      "name": "contains",
      "outputs": [
        {
          "name": "",
          "type": "bool"
        }
      ],
      "payable": false,
      "stateMutability": "view",
      "type": "function"
    }
  ],
  "bytecode": "0x6060604052341561000f57600080fd5b6103c58061001e6000396000f300606060405260043610610062576000357c0100000000000000000000000000000000000000000000000000000000900463ffffffff1680630e420ae314610067578063cb6a023f146100b6578063dab5be0b146100e2578063f473765c14610131575b600080fd5b61009c600480803590602001909190803573ffffffffffffffffffffffffffffffffffffffff16906020019091905050610180565b604051808215151515815260200191505060405180910390f35b6100cc6004808035906020019091905050610258565b6040518082815260200191505060405180910390f35b610117600480803590602001909190803573ffffffffffffffffffffffffffffffffffffffff16906020019091905050610266565b604051808215151515815260200191505060405180910390f35b610166600480803590602001909190803573ffffffffffffffffffffffffffffffffffffffff16906020019091905050610340565b604051808215151515815260200191505060405180910390f35b60008260010160008373ffffffffffffffffffffffffffffffffffffffff1673ffffffffffffffffffffffffffffffffffffffff16815260200190815260200160002060009054906101000a900460ff16156101df5760009050610252565b826000016000815480929190600101919050555060018360010160008473ffffffffffffffffffffffffffffffffffffffff1673ffffffffffffffffffffffffffffffffffffffff16815260200190815260200160002060006101000a81548160ff021916908315150217905550600190505b92915050565b600081600001549050919050565b60008260010160008373ffffffffffffffffffffffffffffffffffffffff1673ffffffffffffffffffffffffffffffffffffffff16815260200190815260200160002060009054906101000a900460ff1615156102c6576000905061033a565b82600001600081548092919060019003919050555060008360010160008473ffffffffffffffffffffffffffffffffffffffff1673ffffffffffffffffffffffffffffffffffffffff16815260200190815260200160002060006101000a81548160ff021916908315150217905550600190505b92915050565b60008260010160008373ffffffffffffffffffffffffffffffffffffffff1673ffffffffffffffffffffffffffffffffffffffff16815260200190815260200160002060009054906101000a900460ff169050929150505600a165627a7a72305820ebcc271a7f33b9c2f130104c1363cce4559b27e158e17a289bf44628774250f30029",
  "source": "//! Copyright 2017 Peter Czaban, Parity Technologies Ltd.\n//!\n//! Licensed under the Apache License, Version 2.0 (the \"License\");\n//! you may not use this file except in compliance with the License.\n//! You may obtain a copy of the License at\n//!\n//!     http://www.apache.org/licenses/LICENSE-2.0\n//!\n//! Unless required by applicable law or agreed to in writing, software\n//! distributed under the License is distributed on an \"AS IS\" BASIS,\n//! WITHOUT WARRANTIES OR CONDITIONS OF ANY KIND, either express or implied.\n//! See the License for the specific language governing permissions and\n//! limitations under the License.\n\npragma solidity ^0.4.15;\n\nlibrary AddressVotes {\n\t// Tracks the number of votes from different addresses.\n\tstruct Data {\n\t\tuint count;\n\t\t// Keeps track of who voted, prevents double vote.\n\t\tmapping(address => bool) inserted;\n\t}\n\n\t// Total number of votes cast.\n\tfunction count(Data storage self) public constant returns (uint) {\n\t\treturn self.count;\n\t}\n\n\t// Did the voter already vote.\n\tfunction contains(Data storage self, address voter) public constant returns (bool) {\n\t\treturn self.inserted[voter];\n\t}\n\n\t// Voter casts a vote.\n\tfunction insert(Data storage self, address voter) public returns (bool) {\n\t\tif (self.inserted[voter]) { return false; }\n\t\tself.count++;\n\t\tself.inserted[voter] = true;\n\t\treturn true;\n\t}\n\n\t// Retract a vote by a voter.\n\tfunction remove(Data storage self, address voter) public returns (bool) {\n\t\tif (!self.inserted[voter]) { return false; }\n\t\tself.count--;\n\t\tself.inserted[voter] = false;\n\t\treturn true;\n\t}\n}\n",
  "sourcePath": "/home/yongwen/work/dlt/private-network/contracts/validator/contracts/libraries/AddressVotes.sol",
  "compiler": {
    "name": "solc",
    "version": "0.4.18+commit.9cf6e910.Emscripten.clang"
  },
  "schemaVersion": "1.0.1",
  "updatedAt": "2018-01-19T06:38:42.102Z"
}