{
  "contractName": "ImmediateTest",
  "abi": [
    {
      "constant": true,
      "inputs": [
        {
          "name": "",
          "type": "uint256"
        }
      ],
      "name": "validators",
      "outputs": [
        {
          "name": "",
          "type": "address"
        }
      ],
      "payable": false,
      "stateMutability": "view",
      "type": "function"
    },
    {
      "constant": false,
      "inputs": [
        {
          "name": "_validator",
          "type": "address"
        }
      ],
      "name": "addValidator",
      "outputs": [],
      "payable": false,
      "stateMutability": "nonpayable",
      "type": "function"
    },
    {
      "constant": false,
      "inputs": [],
      "name": "finalizeChange",
      "outputs": [],
      "payable": false,
      "stateMutability": "nonpayable",
      "type": "function"
    },
    {
      "constant": true,
      "inputs": [],
      "name": "getValidators",
      "outputs": [
        {
          "name": "",
          "type": "address[]"
        }
      ],
      "payable": false,
      "stateMutability": "view",
      "type": "function"
    },
    {
      "constant": false,
      "inputs": [
        {
          "name": "_validator",
          "type": "address"
        },
        {
          "name": "",
          "type": "uint256"
        },
        {
          "name": "",
          "type": "bytes"
        }
      ],
      "name": "reportMalicious",
      "outputs": [],
      "payable": false,
      "stateMutability": "nonpayable",
      "type": "function"
    },
    {
      "constant": false,
      "inputs": [
        {
          "name": "_validator",
          "type": "address"
        },
        {
          "name": "_blockNumber",
          "type": "uint256"
        }
      ],
      "name": "reportBenign",
      "outputs": [],
      "payable": false,
      "stateMutability": "nonpayable",
      "type": "function"
    },
    {
      "constant": true,
      "inputs": [],
      "name": "disliked",
      "outputs": [
        {
          "name": "",
          "type": "address"
        }
      ],
      "payable": false,
      "stateMutability": "view",
      "type": "function"
    },
    {
      "inputs": [],
      "payable": false,
      "stateMutability": "nonpayable",
      "type": "constructor"
    },
    {
      "anonymous": false,
      "inputs": [
        {
          "indexed": true,
          "name": "_parent_hash",
          "type": "bytes32"
        },
        {
          "indexed": false,
          "name": "_new_set",
          "type": "address[]"
        }
      ],
      "name": "InitiateChange",
      "type": "event"
    }
  ],
  "bytecode": "0x60606040526040805190810160405280737d577a597b2742b498cb5cf0c26cdcd726d39e6e73ffffffffffffffffffffffffffffffffffffffff1681526020017382a978b3f5962a5b0957d9ee9eef472ee55b42f173ffffffffffffffffffffffffffffffffffffffff16815250600090600261007d92919061012c565b50341561008957600080fd5b60008090505b60008054905081101561012657806001600080848154811015156100af57fe5b906000526020600020900160009054906101000a900473ffffffffffffffffffffffffffffffffffffffff1673ffffffffffffffffffffffffffffffffffffffff1673ffffffffffffffffffffffffffffffffffffffff16815260200190815260200160002081905550808060010191505061008f565b506101f9565b8280548282559060005260206000209081019282156101a5579160200282015b828111156101a45782518260006101000a81548173ffffffffffffffffffffffffffffffffffffffff021916908373ffffffffffffffffffffffffffffffffffffffff1602179055509160200191906001019061014c565b5b5090506101b291906101b6565b5090565b6101f691905b808211156101f257600081816101000a81549073ffffffffffffffffffffffffffffffffffffffff0219169055506001016101bc565b5090565b90565b6106eb806102086000396000f300606060405260043610610083576000357c0100000000000000000000000000000000000000000000000000000000900463ffffffff16806335aa2e44146100885780634d238c8e146100eb5780637528621114610124578063b7ab4db514610139578063c476dd40146101a3578063d69f13bb14610228578063d8f2e0bf1461026a575b600080fd5b341561009357600080fd5b6100a960048080359060200190919050506102bf565b604051808273ffffffffffffffffffffffffffffffffffffffff1673ffffffffffffffffffffffffffffffffffffffff16815260200191505060405180910390f35b34156100f657600080fd5b610122600480803573ffffffffffffffffffffffffffffffffffffffff169060200190919050506102fe565b005b341561012f57600080fd5b6101376103b0565b005b341561014457600080fd5b61014c6103b2565b6040518080602001828103825283818151815260200191508051906020019060200280838360005b8381101561018f578082015181840152602081019050610174565b505050509050019250505060405180910390f35b34156101ae57600080fd5b610226600480803573ffffffffffffffffffffffffffffffffffffffff1690602001909190803590602001909190803590602001908201803590602001908080601f01602080910402602001604051908101604052809392919081815260200183838082843782019150505050505091905050610446565b005b341561023357600080fd5b610268600480803573ffffffffffffffffffffffffffffffffffffffff169060200190919080359060200190919050506105c3565b005b341561027557600080fd5b61027d610608565b604051808273ffffffffffffffffffffffffffffffffffffffff1673ffffffffffffffffffffffffffffffffffffffff16815260200191505060405180910390f35b6000818154811015156102ce57fe5b90600052602060002090016000915054906101000a900473ffffffffffffffffffffffffffffffffffffffff1681565b60008054806001018281610312919061062e565b9160005260206000209001600083909190916101000a81548173ffffffffffffffffffffffffffffffffffffffff021916908373ffffffffffffffffffffffffffffffffffffffff16021790555050600160008054905003600160008373ffffffffffffffffffffffffffffffffffffffff1673ffffffffffffffffffffffffffffffffffffffff1681526020019081526020016000208190555050565b565b6103ba61065a565b600080548060200260200160405190810160405280929190818152602001828054801561043c57602002820191906000526020600020905b8160009054906101000a900473ffffffffffffffffffffffffffffffffffffffff1673ffffffffffffffffffffffffffffffffffffffff16815260200190600101908083116103f2575b5050505050905090565b600060016000805490500381548110151561045d57fe5b906000526020600020900160009054906101000a900473ffffffffffffffffffffffffffffffffffffffff166000600160008673ffffffffffffffffffffffffffffffffffffffff1673ffffffffffffffffffffffffffffffffffffffff168152602001908152602001600020548154811015156104d757fe5b906000526020600020900160006101000a81548173ffffffffffffffffffffffffffffffffffffffff021916908373ffffffffffffffffffffffffffffffffffffffff160217905550600160008473ffffffffffffffffffffffffffffffffffffffff1673ffffffffffffffffffffffffffffffffffffffff16815260200190815260200160002060009055600060016000805490500381548110151561057a57fe5b906000526020600020900160006101000a81549073ffffffffffffffffffffffffffffffffffffffff021916905560008054809190600190036105bd919061066e565b50505050565b81600260006101000a81548173ffffffffffffffffffffffffffffffffffffffff021916908373ffffffffffffffffffffffffffffffffffffffff1602179055505050565b600260009054906101000a900473ffffffffffffffffffffffffffffffffffffffff1681565b81548183558181151161065557818360005260206000209182019101610654919061069a565b5b505050565b602060405190810160405280600081525090565b81548183558181151161069557818360005260206000209182019101610694919061069a565b5b505050565b6106bc91905b808211156106b85760008160009055506001016106a0565b5090565b905600a165627a7a723058202ff3db004831d767c6e8013bc43c0c2970ded32ecb5a76fb220bc2da3badc7960029",
  "source": "//! Copyright 2017 Peter Czaban, Parity Technologies Ltd.\n//!\n//! Licensed under the Apache License, Version 2.0 (the \"License\");\n//! you may not use this file except in compliance with the License.\n//! You may obtain a copy of the License at\n//!\n//!     http://www.apache.org/licenses/LICENSE-2.0\n//!\n//! Unless required by applicable law or agreed to in writing, software\n//! distributed under the License is distributed on an \"AS IS\" BASIS,\n//! WITHOUT WARRANTIES OR CONDITIONS OF ANY KIND, either express or implied.\n//! See the License for the specific language governing permissions and\n//! limitations under the License.\n\npragma solidity ^0.4.6;\n\nimport \"./interfaces/ValidatorSet.sol\";\n\n// Basic contract used for testing a validator set with immediate transitions.\ncontract ImmediateTest is ImmediateSet {\n\t// Accounts used for testing: \"0\".sha3() and \"1\".sha3()\n\taddress[] public validators = [0x7d577a597b2742b498cb5cf0c26cdcd726d39e6e, 0x82a978b3f5962a5b0957d9ee9eef472ee55b42f1];\n\tmapping(address => uint) indices;\n\taddress public disliked;\n\n\tfunction ImmediateTest() public {\n\t\tfor (uint i = 0; i < validators.length; i++) {\n\t\t\tindices[validators[i]] = i;\n\t\t}\n\t}\n\n\t// Called on every block to update node validator list.\n\tfunction getValidators() public constant returns (address[]) {\n\t\treturn validators;\n\t}\n\n\t// Expand the list of validators.\n\tfunction addValidator(address _validator) public {\n\t\tvalidators.push(_validator);\n\t\tindices[_validator] = validators.length - 1;\n\t}\n\n\t// Remove a validator from the list.\n\tfunction reportMalicious(address _validator, uint, bytes) public {\n\t\tvalidators[indices[_validator]] = validators[validators.length-1];\n\t\tdelete indices[_validator];\n\t\tdelete validators[validators.length-1];\n\t\tvalidators.length--;\n\t}\n\n\tfunction reportBenign(address _validator, uint _blockNumber) public {\n\t\tdisliked = _validator;\n\t}\n}\n",
  "sourcePath": "/home/yongwen/work/dlt/private-network/contracts/validator/contracts/ImmediateTest.sol",
  "compiler": {
    "name": "solc",
    "version": "0.4.18+commit.9cf6e910.Emscripten.clang"
  },
  "schemaVersion": "1.0.1",
  "updatedAt": "2018-01-19T06:38:42.093Z"
}