{
  "contractName": "InnerOwnedSet",
  "abi": [
    {
      "constant": true,
      "inputs": [],
      "name": "recentBlocks",
      "outputs": [
        {
          "name": "",
          "type": "uint256"
        }
      ],
      "payable": false,
      "stateMutability": "view",
      "type": "function"
    },
    {
      "constant": true,
      "inputs": [],
      "name": "getPending",
      "outputs": [
        {
          "name": "",
          "type": "address[]"
        }
      ],
      "payable": false,
      "stateMutability": "view",
      "type": "function"
    },
    {
      "constant": false,
      "inputs": [
        {
          "name": "_new",
          "type": "address"
        }
      ],
      "name": "setOwner",
      "outputs": [],
      "payable": false,
      "stateMutability": "nonpayable",
      "type": "function"
    },
    {
      "constant": false,
      "inputs": [
        {
          "name": "_validator",
          "type": "address"
        }
      ],
      "name": "removeValidator",
      "outputs": [],
      "payable": false,
      "stateMutability": "nonpayable",
      "type": "function"
    },
    {
      "constant": false,
      "inputs": [
        {
          "name": "_validator",
          "type": "address"
        }
      ],
      "name": "addValidator",
      "outputs": [],
      "payable": false,
      "stateMutability": "nonpayable",
      "type": "function"
    },
    {
      "constant": false,
      "inputs": [],
      "name": "finalizeChange",
      "outputs": [],
      "payable": false,
      "stateMutability": "nonpayable",
      "type": "function"
    },
    {
      "constant": false,
      "inputs": [
        {
          "name": "_recentBlocks",
          "type": "uint256"
        }
      ],
      "name": "setRecentBlocks",
      "outputs": [],
      "payable": false,
      "stateMutability": "nonpayable",
      "type": "function"
    },
    {
      "constant": true,
      "inputs": [],
      "name": "owner",
      "outputs": [
        {
          "name": "",
          "type": "address"
        }
      ],
      "payable": false,
      "stateMutability": "view",
      "type": "function"
    },
    {
      "constant": true,
      "inputs": [],
      "name": "outerSet",
      "outputs": [
        {
          "name": "",
          "type": "address"
        }
      ],
      "payable": false,
      "stateMutability": "view",
      "type": "function"
    },
    {
      "constant": true,
      "inputs": [],
      "name": "getValidators",
      "outputs": [
        {
          "name": "",
          "type": "address[]"
        }
      ],
      "payable": false,
      "stateMutability": "view",
      "type": "function"
    },
    {
      "constant": false,
      "inputs": [
        {
          "name": "_validator",
          "type": "address"
        },
        {
          "name": "_blockNumber",
          "type": "uint256"
        },
        {
          "name": "_proof",
          "type": "bytes"
        }
      ],
      "name": "reportMalicious",
      "outputs": [],
      "payable": false,
      "stateMutability": "nonpayable",
      "type": "function"
    },
    {
      "constant": false,
      "inputs": [
        {
          "name": "_validator",
          "type": "address"
        },
        {
          "name": "_blockNumber",
          "type": "uint256"
        }
      ],
      "name": "reportBenign",
      "outputs": [],
      "payable": false,
      "stateMutability": "nonpayable",
      "type": "function"
    },
    {
      "inputs": [
        {
          "name": "_initial",
          "type": "address[]"
        }
      ],
      "payable": false,
      "stateMutability": "nonpayable",
      "type": "constructor"
    },
    {
      "anonymous": false,
      "inputs": [
        {
          "indexed": true,
          "name": "reporter",
          "type": "address"
        },
        {
          "indexed": true,
          "name": "reported",
          "type": "address"
        },
        {
          "indexed": true,
          "name": "malicious",
          "type": "bool"
        }
      ],
      "name": "Report",
      "type": "event"
    },
    {
      "anonymous": false,
      "inputs": [
        {
          "indexed": true,
          "name": "_parent_hash",
          "type": "bytes32"
        },
        {
          "indexed": false,
          "name": "_new_set",
          "type": "address[]"
        }
      ],
      "name": "InitiateChange",
      "type": "event"
    },
    {
      "anonymous": false,
      "inputs": [
        {
          "indexed": false,
          "name": "current_set",
          "type": "address[]"
        }
      ],
      "name": "ChangeFinalized",
      "type": "event"
    },
    {
      "anonymous": false,
      "inputs": [
        {
          "indexed": true,
          "name": "old",
          "type": "address"
        },
        {
          "indexed": true,
          "name": "current",
          "type": "address"
        }
      ],
      "name": "NewOwner",
      "type": "event"
    }
  ],
  "bytecode": "0x6060604052336000806101000a81548173ffffffffffffffffffffffffffffffffffffffff021916908373ffffffffffffffffffffffffffffffffffffffff160217905550601460025534156200005557600080fd5b604051620014403803806200144083398101604052808051820191905050600081600490805190602001906200008d9291906200019d565b50600090505b600182510381101562000180576001600560008484815181101515620000b557fe5b9060200190602002015173ffffffffffffffffffffffffffffffffffffffff1673ffffffffffffffffffffffffffffffffffffffff16815260200190815260200160002060000160006101000a81548160ff021916908315150217905550806005600084848151811015156200012757fe5b9060200190602002015173ffffffffffffffffffffffffffffffffffffffff1673ffffffffffffffffffffffffffffffffffffffff16815260200190815260200160002060010181905550808060010191505062000093565b60046003908054620001949291906200022c565b505050620002c9565b82805482825590600052602060002090810192821562000219579160200282015b82811115620002185782518260006101000a81548173ffffffffffffffffffffffffffffffffffffffff021916908373ffffffffffffffffffffffffffffffffffffffff16021790555091602001919060010190620001be565b5b50905062000228919062000283565b5090565b828054828255906000526020600020908101928215620002705760005260206000209182015b828111156200026f57825482559160010191906001019062000252565b5b5090506200027f919062000283565b5090565b620002c691905b80821115620002c257600081816101000a81549073ffffffffffffffffffffffffffffffffffffffff0219169055506001016200028a565b5090565b90565b61116780620002d96000396000f3006060604052600436106100ba576000357c0100000000000000000000000000000000000000000000000000000000900463ffffffff1680630c857805146100bf57806311ae9ed2146100e857806313af40351461015257806340a141ff1461018b5780634d238c8e146101c457806375286211146101fd5780638c90ac07146102125780638da5cb5b14610235578063a6b340b61461028a578063b7ab4db5146102df578063c476dd4014610349578063d69f13bb146103ce575b600080fd5b34156100ca57600080fd5b6100d2610410565b6040518082815260200191505060405180910390f35b34156100f357600080fd5b6100fb610416565b6040518080602001828103825283818151815260200191508051906020019060200280838360005b8381101561013e578082015181840152602081019050610123565b505050509050019250505060405180910390f35b341561015d57600080fd5b610189600480803573ffffffffffffffffffffffffffffffffffffffff169060200190919050506104aa565b005b341561019657600080fd5b6101c2600480803573ffffffffffffffffffffffffffffffffffffffff169060200190919050506105c3565b005b34156101cf57600080fd5b6101fb600480803573ffffffffffffffffffffffffffffffffffffffff1690602001909190505061085f565b005b341561020857600080fd5b610210610a2d565b005b341561021d57600080fd5b6102336004808035906020019091905050610b4a565b005b341561024057600080fd5b610248610baf565b604051808273ffffffffffffffffffffffffffffffffffffffff1673ffffffffffffffffffffffffffffffffffffffff16815260200191505060405180910390f35b341561029557600080fd5b61029d610bd4565b604051808273ffffffffffffffffffffffffffffffffffffffff1673ffffffffffffffffffffffffffffffffffffffff16815260200191505060405180910390f35b34156102ea57600080fd5b6102f2610bfa565b6040518080602001828103825283818151815260200191508051906020019060200280838360005b8381101561033557808201518184015260208101905061031a565b505050509050019250505060405180910390f35b341561035457600080fd5b6103cc600480803573ffffffffffffffffffffffffffffffffffffffff1690602001909190803590602001909190803590602001908201803590602001908080601f01602080910402602001604051908101604052809392919081815260200183838082843782019150505050505091905050610c8e565b005b34156103d957600080fd5b61040e600480803573ffffffffffffffffffffffffffffffffffffffff16906020019091908035906020019091905050610d61565b005b60025481565b61041e611015565b60048054806020026020016040519081016040528092919081815260200182805480156104a057602002820191906000526020600020905b8160009054906101000a900473ffffffffffffffffffffffffffffffffffffffff1673ffffffffffffffffffffffffffffffffffffffff1681526020019060010190808311610456575b5050505050905090565b6000809054906101000a900473ffffffffffffffffffffffffffffffffffffffff1673ffffffffffffffffffffffffffffffffffffffff163373ffffffffffffffffffffffffffffffffffffffff1614151561050557600080fd5b8073ffffffffffffffffffffffffffffffffffffffff166000809054906101000a900473ffffffffffffffffffffffffffffffffffffffff1673ffffffffffffffffffffffffffffffffffffffff167f70aea8d848e8a90fb7661b227dc522eb6395c3dac71b63cb59edd5c9899b236460405160405180910390a3806000806101000a81548173ffffffffffffffffffffffffffffffffffffffff021916908373ffffffffffffffffffffffffffffffffffffffff16021790555050565b6000809054906101000a900473ffffffffffffffffffffffffffffffffffffffff1673ffffffffffffffffffffffffffffffffffffffff163373ffffffffffffffffffffffffffffffffffffffff1614151561061e57600080fd5b80600560008273ffffffffffffffffffffffffffffffffffffffff1673ffffffffffffffffffffffffffffffffffffffff16815260200190815260200160002060000160009054906101000a900460ff16151561067a57600080fd5b600460016004805490500381548110151561069157fe5b906000526020600020900160009054906101000a900473ffffffffffffffffffffffffffffffffffffffff166004600560008573ffffffffffffffffffffffffffffffffffffffff1673ffffffffffffffffffffffffffffffffffffffff1681526020019081526020016000206001015481548110151561070e57fe5b906000526020600020900160006101000a81548173ffffffffffffffffffffffffffffffffffffffff021916908373ffffffffffffffffffffffffffffffffffffffff160217905550600460016004805490500381548110151561076e57fe5b906000526020600020900160006101000a81549073ffffffffffffffffffffffffffffffffffffffff021916905560048054809190600190036107b19190611029565b50600560008373ffffffffffffffffffffffffffffffffffffffff1673ffffffffffffffffffffffffffffffffffffffff168152602001908152602001600020600101600090556000600560008473ffffffffffffffffffffffffffffffffffffffff1673ffffffffffffffffffffffffffffffffffffffff16815260200190815260200160002060000160006101000a81548160ff02191690831515021790555061085b610e8b565b5050565b6000809054906101000a900473ffffffffffffffffffffffffffffffffffffffff1673ffffffffffffffffffffffffffffffffffffffff163373ffffffffffffffffffffffffffffffffffffffff161415156108ba57600080fd5b80600560008273ffffffffffffffffffffffffffffffffffffffff1673ffffffffffffffffffffffffffffffffffffffff16815260200190815260200160002060000160009054906101000a900460ff1615151561091757600080fd5b6001600560008473ffffffffffffffffffffffffffffffffffffffff1673ffffffffffffffffffffffffffffffffffffffff16815260200190815260200160002060000160006101000a81548160ff021916908315150217905550600480549050600560008473ffffffffffffffffffffffffffffffffffffffff1673ffffffffffffffffffffffffffffffffffffffff16815260200190815260200160002060010181905550600480548060010182816109d29190611055565b9160005260206000209001600084909190916101000a81548173ffffffffffffffffffffffffffffffffffffffff021916908373ffffffffffffffffffffffffffffffffffffffff16021790555050610a29610e8b565b5050565b600160009054906101000a900473ffffffffffffffffffffffffffffffffffffffff1673ffffffffffffffffffffffffffffffffffffffff163373ffffffffffffffffffffffffffffffffffffffff16141515610a8957600080fd5b60046003908054610a9b929190611081565b507f8564cd629b15f47dc310d45bcbfc9bcf5420b0d51bf0659a16c67f91d2763253600360405180806020018281038252838181548152602001915080548015610b3a57602002820191906000526020600020905b8160009054906101000a900473ffffffffffffffffffffffffffffffffffffffff1673ffffffffffffffffffffffffffffffffffffffff1681526020019060010190808311610af0575b50509250505060405180910390a1565b6000809054906101000a900473ffffffffffffffffffffffffffffffffffffffff1673ffffffffffffffffffffffffffffffffffffffff163373ffffffffffffffffffffffffffffffffffffffff16141515610ba557600080fd5b8060028190555050565b6000809054906101000a900473ffffffffffffffffffffffffffffffffffffffff1681565b600160009054906101000a900473ffffffffffffffffffffffffffffffffffffffff1681565b610c02611015565b6003805480602002602001604051908101604052809291908181526020018280548015610c8457602002820191906000526020600020905b8160009054906101000a900473ffffffffffffffffffffffffffffffffffffffff1673ffffffffffffffffffffffffffffffffffffffff1681526020019060010190808311610c3a575b5050505050905090565b6000809054906101000a900473ffffffffffffffffffffffffffffffffffffffff1673ffffffffffffffffffffffffffffffffffffffff163373ffffffffffffffffffffffffffffffffffffffff16141515610ce957600080fd5b8160025481014311151515610cfd57600080fd5b600115158473ffffffffffffffffffffffffffffffffffffffff163373ffffffffffffffffffffffffffffffffffffffff167f32c78b6140c46745a46e88cd883707d70dbd2f06d13dd76fe5f499c01290da4f60405160405180910390a450505050565b6000809054906101000a900473ffffffffffffffffffffffffffffffffffffffff1673ffffffffffffffffffffffffffffffffffffffff163373ffffffffffffffffffffffffffffffffffffffff16141515610dbc57600080fd5b81600560008273ffffffffffffffffffffffffffffffffffffffff1673ffffffffffffffffffffffffffffffffffffffff16815260200190815260200160002060000160009054906101000a900460ff1615610e86578160025481014311151515610e2657600080fd5b600015158473ffffffffffffffffffffffffffffffffffffffff163373ffffffffffffffffffffffffffffffffffffffff167f32c78b6140c46745a46e88cd883707d70dbd2f06d13dd76fe5f499c01290da4f60405160405180910390a4505b505050565b600160009054906101000a900473ffffffffffffffffffffffffffffffffffffffff1673ffffffffffffffffffffffffffffffffffffffff1663a0285c016001430340610ed6610416565b6040518363ffffffff167c010000000000000000000000000000000000000000000000000000000002815260040180836000191660001916815260200180602001828103825283818151815260200191508051906020019060200280838360005b83811015610f52578082015181840152602081019050610f37565b505050509050019350505050600060405180830381600087803b1515610f7757600080fd5b6102c65a03f11515610f8857600080fd5b5050506001430340600019167f55252fa6eee4741b4e24a74a70e9c11fd2c2281df8d6ea13126ff845f7825c89610fbd610416565b6040518080602001828103825283818151815260200191508051906020019060200280838360005b83811015611000578082015181840152602081019050610fe5565b505050509050019250505060405180910390a2565b602060405190810160405280600081525090565b8154818355818115116110505781836000526020600020918201910161104f91906110d3565b5b505050565b81548183558181151161107c5781836000526020600020918201910161107b91906110d3565b5b505050565b8280548282559060005260206000209081019282156110c25760005260206000209182015b828111156110c15782548255916001019190600101906110a6565b5b5090506110cf91906110f8565b5090565b6110f591905b808211156110f15760008160009055506001016110d9565b5090565b90565b61113891905b8082111561113457600081816101000a81549073ffffffffffffffffffffffffffffffffffffffff0219169055506001016110fe565b5090565b905600a165627a7a72305820b38906fb2b5d007e5a3d44316447cc524d4315a0d990fb5f7787a148326d8cca0029",
  "source": "//! Copyright 2017 Peter Czaban, Parity Technologies Ltd.\n//!\n//! Licensed under the Apache License, Version 2.0 (the \"License\");\n//! you may not use this file except in compliance with the License.\n//! You may obtain a copy of the License at\n//!\n//!     http://www.apache.org/licenses/LICENSE-2.0\n//!\n//! Unless required by applicable law or agreed to in writing, software\n//! distributed under the License is distributed on an \"AS IS\" BASIS,\n//! WITHOUT WARRANTIES OR CONDITIONS OF ANY KIND, either express or implied.\n//! See the License for the specific language governing permissions and\n//! limitations under the License.\n\npragma solidity ^0.4.15;\n\nimport \"./interfaces/Owned.sol\";\nimport \"./interfaces/RelaySet.sol\";\n\n// Owner can add or remove validators.\n\ncontract InnerOwnedSet is Owned, InnerSet {\n\t// EVENTS\n\tevent Report(address indexed reporter, address indexed reported, bool indexed malicious);\n\tevent InitiateChange(bytes32 indexed _parent_hash, address[] _new_set);\n\tevent ChangeFinalized(address[] current_set);\n\n\t// System address, used by the block sealer.\n\tuint public recentBlocks = 20;\n\n\tmodifier is_validator(address _someone) {\n\t\tif (pendingStatus[_someone].isIn) { _; }\n\t}\n\n\tmodifier is_pending(address _someone) {\n\t\trequire(pendingStatus[_someone].isIn);\n\t\t_;\n\t}\n\n\tmodifier is_not_pending(address _someone) {\n\t\trequire(!pendingStatus[_someone].isIn);\n\t\t_;\n\t}\n\n\tmodifier is_recent(uint _blockNumber) {\n\t\trequire(block.number <= _blockNumber + recentBlocks);\n\t\t_;\n\t}\n\n\tstruct AddressStatus {\n\t\tbool isIn;\n\t\tuint index;\n\t}\n\n\t// Current list of addresses entitled to participate in the consensus.\n\taddress[] validators;\n\taddress[] pending;\n\tmapping(address => AddressStatus) pendingStatus;\n\n\tfunction InnerOwnedSet(address[] _initial) public {\n\t\tpending = _initial;\n\t\tfor (uint i = 0; i < _initial.length - 1; i++) {\n\t\t\tpendingStatus[_initial[i]].isIn = true;\n\t\t\tpendingStatus[_initial[i]].index = i;\n\t\t}\n\t\tvalidators = pending;\n\t}\n\n\t// Called to determine the current set of validators.\n\tfunction getValidators() constant public returns (address[]) {\n\t\treturn validators;\n\t}\n\n\tfunction getPending() constant public returns (address[]) {\n\t\treturn pending;\n\t}\n\n\t// Log desire to change the current list.\n\tfunction initiateChange() private {\n\t\touterSet.initiateChange(block.blockhash(block.number - 1), getPending());\n\t\tInitiateChange(block.blockhash(block.number - 1), getPending());\n\t}\n\n\tfunction finalizeChange() public only_outer {\n\t\tvalidators = pending;\n\t\tChangeFinalized(validators);\n\t}\n\n\t// OWNER FUNCTIONS\n\n\t// Add a validator.\n\tfunction addValidator(address _validator) public only_owner is_not_pending(_validator) {\n\t\tpendingStatus[_validator].isIn = true;\n\t\tpendingStatus[_validator].index = pending.length;\n\t\tpending.push(_validator);\n\t\tinitiateChange();\n\t}\n\n\t// Remove a validator.\n\tfunction removeValidator(address _validator) public only_owner is_pending(_validator) {\n\t\tpending[pendingStatus[_validator].index] = pending[pending.length - 1];\n\t\tdelete pending[pending.length - 1];\n\t\tpending.length--;\n\t\t// Reset address status.\n\t\tdelete pendingStatus[_validator].index;\n\t\tpendingStatus[_validator].isIn = false;\n\t\tinitiateChange();\n\t}\n\n\tfunction setRecentBlocks(uint _recentBlocks) public only_owner {\n\t\trecentBlocks = _recentBlocks;\n\t}\n\n\t// MISBEHAVIOUR HANDLING\n\n\t// Called when a validator should be removed.\n\tfunction reportMalicious(address _validator, uint _blockNumber, bytes _proof) public only_owner is_recent(_blockNumber) {\n\t\tReport(msg.sender, _validator, true);\n\t}\n\n\t// Report that a validator has misbehaved in a benign way.\n\tfunction reportBenign(address _validator, uint _blockNumber) public only_owner is_validator(_validator) is_recent(_blockNumber) {\n\t\tReport(msg.sender, _validator, false);\n\t}\n}\n",
  "sourcePath": "/home/yongwen/work/dlt/private-network/contracts/validator/contracts/InnerOwnedSet.sol",
  "compiler": {
    "name": "solc",
    "version": "0.4.18+commit.9cf6e910.Emscripten.clang"
  },
  "schemaVersion": "1.0.1",
  "updatedAt": "2018-01-19T06:38:42.095Z"
}