{
  "contractName": "InnerMajoritySet",
  "abi": [
    {
      "constant": true,
      "inputs": [
        {
          "name": "validator",
          "type": "address"
        }
      ],
      "name": "highSupport",
      "outputs": [
        {
          "name": "",
          "type": "bool"
        }
      ],
      "payable": false,
      "stateMutability": "view",
      "type": "function"
    },
    {
      "constant": true,
      "inputs": [
        {
          "name": "",
          "type": "uint256"
        }
      ],
      "name": "validatorsList",
      "outputs": [
        {
          "name": "",
          "type": "address"
        }
      ],
      "payable": false,
      "stateMutability": "view",
      "type": "function"
    },
    {
      "constant": false,
      "inputs": [
        {
          "name": "validator",
          "type": "address"
        }
      ],
      "name": "removeValidator",
      "outputs": [],
      "payable": false,
      "stateMutability": "nonpayable",
      "type": "function"
    },
    {
      "constant": false,
      "inputs": [
        {
          "name": "validator",
          "type": "address"
        }
      ],
      "name": "addValidator",
      "outputs": [],
      "payable": false,
      "stateMutability": "nonpayable",
      "type": "function"
    },
    {
      "constant": true,
      "inputs": [
        {
          "name": "validator",
          "type": "address"
        }
      ],
      "name": "getRepeatedBenign",
      "outputs": [
        {
          "name": "",
          "type": "uint256"
        }
      ],
      "payable": false,
      "stateMutability": "view",
      "type": "function"
    },
    {
      "constant": true,
      "inputs": [
        {
          "name": "validator",
          "type": "address"
        }
      ],
      "name": "getSupported",
      "outputs": [
        {
          "name": "",
          "type": "address[]"
        }
      ],
      "payable": false,
      "stateMutability": "view",
      "type": "function"
    },
    {
      "constant": true,
      "inputs": [],
      "name": "MAX_VALIDATORS",
      "outputs": [
        {
          "name": "",
          "type": "uint256"
        }
      ],
      "payable": false,
      "stateMutability": "view",
      "type": "function"
    },
    {
      "constant": false,
      "inputs": [],
      "name": "finalizeChange",
      "outputs": [],
      "payable": false,
      "stateMutability": "nonpayable",
      "type": "function"
    },
    {
      "constant": true,
      "inputs": [],
      "name": "outerSet",
      "outputs": [
        {
          "name": "",
          "type": "address"
        }
      ],
      "payable": false,
      "stateMutability": "view",
      "type": "function"
    },
    {
      "constant": true,
      "inputs": [],
      "name": "getValidators",
      "outputs": [
        {
          "name": "",
          "type": "address[]"
        }
      ],
      "payable": false,
      "stateMutability": "view",
      "type": "function"
    },
    {
      "constant": true,
      "inputs": [
        {
          "name": "reporter",
          "type": "address"
        },
        {
          "name": "validator",
          "type": "address"
        }
      ],
      "name": "firstBenignReported",
      "outputs": [
        {
          "name": "",
          "type": "uint256"
        }
      ],
      "payable": false,
      "stateMutability": "view",
      "type": "function"
    },
    {
      "constant": true,
      "inputs": [
        {
          "name": "validator",
          "type": "address"
        }
      ],
      "name": "getSupport",
      "outputs": [
        {
          "name": "",
          "type": "uint256"
        }
      ],
      "payable": false,
      "stateMutability": "view",
      "type": "function"
    },
    {
      "constant": false,
      "inputs": [
        {
          "name": "validator",
          "type": "address"
        }
      ],
      "name": "addSupport",
      "outputs": [],
      "payable": false,
      "stateMutability": "nonpayable",
      "type": "function"
    },
    {
      "constant": false,
      "inputs": [
        {
          "name": "validator",
          "type": "address"
        }
      ],
      "name": "absolveFirstBenign",
      "outputs": [],
      "payable": false,
      "stateMutability": "nonpayable",
      "type": "function"
    },
    {
      "constant": false,
      "inputs": [
        {
          "name": "validator",
          "type": "address"
        },
        {
          "name": "blockNumber",
          "type": "uint256"
        },
        {
          "name": "proof",
          "type": "bytes"
        }
      ],
      "name": "reportMalicious",
      "outputs": [],
      "payable": false,
      "stateMutability": "nonpayable",
      "type": "function"
    },
    {
      "constant": true,
      "inputs": [],
      "name": "MAX_INACTIVITY",
      "outputs": [
        {
          "name": "",
          "type": "uint256"
        }
      ],
      "payable": false,
      "stateMutability": "view",
      "type": "function"
    },
    {
      "constant": true,
      "inputs": [],
      "name": "RECENT_BLOCKS",
      "outputs": [
        {
          "name": "",
          "type": "uint256"
        }
      ],
      "payable": false,
      "stateMutability": "view",
      "type": "function"
    },
    {
      "constant": false,
      "inputs": [
        {
          "name": "validator",
          "type": "address"
        },
        {
          "name": "blockNumber",
          "type": "uint256"
        }
      ],
      "name": "reportBenign",
      "outputs": [],
      "payable": false,
      "stateMutability": "nonpayable",
      "type": "function"
    },
    {
      "inputs": [],
      "payable": false,
      "stateMutability": "nonpayable",
      "type": "constructor"
    },
    {
      "anonymous": false,
      "inputs": [
        {
          "indexed": true,
          "name": "reporter",
          "type": "address"
        },
        {
          "indexed": true,
          "name": "reported",
          "type": "address"
        },
        {
          "indexed": true,
          "name": "malicious",
          "type": "bool"
        }
      ],
      "name": "Report",
      "type": "event"
    },
    {
      "anonymous": false,
      "inputs": [
        {
          "indexed": true,
          "name": "supporter",
          "type": "address"
        },
        {
          "indexed": true,
          "name": "supported",
          "type": "address"
        },
        {
          "indexed": true,
          "name": "added",
          "type": "bool"
        }
      ],
      "name": "Support",
      "type": "event"
    },
    {
      "anonymous": false,
      "inputs": [
        {
          "indexed": true,
          "name": "_parent_hash",
          "type": "bytes32"
        },
        {
          "indexed": false,
          "name": "_new_set",
          "type": "address[]"
        }
      ],
      "name": "InitiateChange",
      "type": "event"
    },
    {
      "anonymous": false,
      "inputs": [
        {
          "indexed": false,
          "name": "current_set",
          "type": "address[]"
        }
      ],
      "name": "ChangeFinalized",
      "type": "event"
    }
  ],
  "bytecode": "0x606060405260206040519081016040528073f5777f8133aae2734396ab1d43ca54ad11bfb73773ffffffffffffffffffffffffffffffffffffffff1681525060029060016200005092919062000339565b5034156200005d57600080fd5b600080600080600280549050600460000181905550600093505b6002805490508410156200012c576002848154811015156200009557fe5b906000526020600020900160009054906101000a900473ffffffffffffffffffffffffffffffffffffffff1692506001600460010160008573ffffffffffffffffffffffffffffffffffffffff1673ffffffffffffffffffffffffffffffffffffffff16815260200190815260200160002060006101000a81548160ff021916908315150217905550838060010194505062000077565b600091505b6002805490508210156200031a576002828154811015156200014f57fe5b906000526020600020900160009054906101000a900473ffffffffffffffffffffffffffffffffffffffff16905060a060405190810160405280600115158152602001838152602001600460206040519081016040529081600082015481525050815260200160028054806020026020016040519081016040528092919081815260200182805480156200023957602002820191906000526020600020905b8160009054906101000a900473ffffffffffffffffffffffffffffffffffffffff1673ffffffffffffffffffffffffffffffffffffffff1681526020019060010190808311620001ee575b505050505081526020016020604051908101604052806000815250815250600360008373ffffffffffffffffffffffffffffffffffffffff1673ffffffffffffffffffffffffffffffffffffffff16815260200190815260200160002060008201518160000160006101000a81548160ff021916908315150217905550602082015181600101556040820151816002016000820151816000015550506060820151816004019080519060200190620002f3929190620003c8565b50608082015181600601600082015181600001555050905050818060010192505062000131565b600260019080546200032e92919062000457565b5050505050620004f4565b828054828255906000526020600020908101928215620003b5579160200282015b82811115620003b45782518260006101000a81548173ffffffffffffffffffffffffffffffffffffffff021916908373ffffffffffffffffffffffffffffffffffffffff160217905550916020019190600101906200035a565b5b509050620003c49190620004ae565b5090565b82805482825590600052602060002090810192821562000444579160200282015b82811115620004435782518260006101000a81548173ffffffffffffffffffffffffffffffffffffffff021916908373ffffffffffffffffffffffffffffffffffffffff16021790555091602001919060010190620003e9565b5b509050620004539190620004ae565b5090565b8280548282559060005260206000209081019282156200049b5760005260206000209182015b828111156200049a5782548255916001019190600101906200047d565b5b509050620004aa9190620004ae565b5090565b620004f191905b80821115620004ed57600081816101000a81549073ffffffffffffffffffffffffffffffffffffffff021916905550600101620004b5565b5090565b90565b61248080620005046000396000f3006060604052600436106100fc576000357c0100000000000000000000000000000000000000000000000000000000900463ffffffff1680631214622214610101578063170f92911461015257806340a141ff146101b55780634d238c8e146101ee5780635798a9b614610227578063695764c814610274578063714897df14610302578063752862111461032b578063a6b340b614610340578063b7ab4db514610395578063b7fa3850146103ff578063b88c91471461046b578063bc201a9d146104b8578063c06998d6146104f1578063c476dd401461052a578063d386807c146105af578063d4a3bde1146105d8578063d69f13bb14610601575b600080fd5b341561010c57600080fd5b610138600480803573ffffffffffffffffffffffffffffffffffffffff16906020019091905050610643565b604051808215151515815260200191505060405180910390f35b341561015d57600080fd5b6101736004808035906020019091905050610667565b604051808273ffffffffffffffffffffffffffffffffffffffff1673ffffffffffffffffffffffffffffffffffffffff16815260200191505060405180910390f35b34156101c057600080fd5b6101ec600480803573ffffffffffffffffffffffffffffffffffffffff169060200190919050506106a6565b005b34156101f957600080fd5b610225600480803573ffffffffffffffffffffffffffffffffffffffff16906020019091905050610a3e565b005b341561023257600080fd5b61025e600480803573ffffffffffffffffffffffffffffffffffffffff16906020019091905050610d64565b6040518082815260200191505060405180910390f35b341561027f57600080fd5b6102ab600480803573ffffffffffffffffffffffffffffffffffffffff16906020019091905050610e3c565b6040518080602001828103825283818151815260200191508051906020019060200280838360005b838110156102ee5780820151818401526020810190506102d3565b505050509050019250505060405180910390f35b341561030d57600080fd5b610315610f12565b6040518082815260200191505060405180910390f35b341561033657600080fd5b61033e610f17565b005b341561034b57600080fd5b610353611033565b604051808273ffffffffffffffffffffffffffffffffffffffff1673ffffffffffffffffffffffffffffffffffffffff16815260200191505060405180910390f35b34156103a057600080fd5b6103a8611058565b6040518080602001828103825283818151815260200191508051906020019060200280838360005b838110156103eb5780820151818401526020810190506103d0565b505050509050019250505060405180910390f35b341561040a57600080fd5b610455600480803573ffffffffffffffffffffffffffffffffffffffff1690602001909190803573ffffffffffffffffffffffffffffffffffffffff169060200190919050506110ec565b6040518082815260200191505060405180910390f35b341561047657600080fd5b6104a2600480803573ffffffffffffffffffffffffffffffffffffffff16906020019091905050611176565b6040518082815260200191505060405180910390f35b34156104c357600080fd5b6104ef600480803573ffffffffffffffffffffffffffffffffffffffff1690602001909190505061124e565b005b34156104fc57600080fd5b610528600480803573ffffffffffffffffffffffffffffffffffffffff169060200190919050506115e8565b005b341561053557600080fd5b6105ad600480803573ffffffffffffffffffffffffffffffffffffffff1690602001909190803590602001909190803590602001908201803590602001908080601f01602080910402602001604051908101604052809392919081815260200183838082843782019150505050505091905050611789565b005b34156105ba57600080fd5b6105c2611865565b6040518082815260200191505060405180910390f35b34156105e357600080fd5b6105eb61186b565b6040518082815260200191505060405180910390f35b341561060c57600080fd5b610641600480803573ffffffffffffffffffffffffffffffffffffffff16906020019091908035906020019091905050611870565b005b60006002808054905081151561065557fe5b0461065f83611176565b119050919050565b60018181548110151561067657fe5b90600052602060002090016000915054906101000a900473ffffffffffffffffffffffffffffffffffffffff1681565b600080600080600085600360008273ffffffffffffffffffffffffffffffffffffffff1673ffffffffffffffffffffffffffffffffffffffff16815260200190815260200160002060000160009054906101000a900460ff1615610a35578661070e81610643565b1515610a3357600360008973ffffffffffffffffffffffffffffffffffffffff1673ffffffffffffffffffffffffffffffffffffffff168152602001908152602001600020600101549650600160028054905003955060028681548110151561077357fe5b906000526020600020900160009054906101000a900473ffffffffffffffffffffffffffffffffffffffff169450846002888154811015156107b157fe5b906000526020600020900160006101000a81548173ffffffffffffffffffffffffffffffffffffffff021916908373ffffffffffffffffffffffffffffffffffffffff16021790555086600360008773ffffffffffffffffffffffffffffffffffffffff1673ffffffffffffffffffffffffffffffffffffffff1681526020019081526020016000206001018190555060028681548110151561085057fe5b906000526020600020900160006101000a81549073ffffffffffffffffffffffffffffffffffffffff021916905560028054809190600190036108939190612283565b506000600360008a73ffffffffffffffffffffffffffffffffffffffff1673ffffffffffffffffffffffffffffffffffffffff168152602001908152602001600020600101819055506000600360008a73ffffffffffffffffffffffffffffffffffffffff1673ffffffffffffffffffffffffffffffffffffffff16815260200190815260200160002060000160006101000a81548160ff021916908315150217905550600360008973ffffffffffffffffffffffffffffffffffffffff1673ffffffffffffffffffffffffffffffffffffffff1681526020019081526020016000206004019350600092505b83805490508310156109dc576109cf88858581548110151561099e57fe5b906000526020600020900160009054906101000a900473ffffffffffffffffffffffffffffffffffffffff166119ab565b8280600101935050610980565b600360008973ffffffffffffffffffffffffffffffffffffffff1673ffffffffffffffffffffffffffffffffffffffff1681526020019081526020016000206004016000610a2a91906122af565b610a32611b24565b5b505b50505050505050565b80600360008273ffffffffffffffffffffffffffffffffffffffff1673ffffffffffffffffffffffffffffffffffffffff16815260200190815260200160002060000160009054906101000a900460ff161515610d605781610a9f81610643565b15610d5e57600280549050600360008573ffffffffffffffffffffffffffffffffffffffff1673ffffffffffffffffffffffffffffffffffffffff1681526020019081526020016000206001018190555060028054806001018281610b0491906122d0565b9160005260206000209001600085909190916101000a81548173ffffffffffffffffffffffffffffffffffffffff021916908373ffffffffffffffffffffffffffffffffffffffff160217905550506001600360008573ffffffffffffffffffffffffffffffffffffffff1673ffffffffffffffffffffffffffffffffffffffff16815260200190815260200160002060000160006101000a81548160ff02191690831515021790555073__AddressVotes__________________________630e420ae3600360008673ffffffffffffffffffffffffffffffffffffffff1673ffffffffffffffffffffffffffffffffffffffff168152602001908152602001600020600201856000604051602001526040518363ffffffff167c0100000000000000000000000000000000000000000000000000000000028152600401808381526020018273ffffffffffffffffffffffffffffffffffffffff1673ffffffffffffffffffffffffffffffffffffffff1681526020019250505060206040518083038186803b1515610c9657600080fd5b6102c65a03f41515610ca757600080fd5b5050506040518051905050600360008473ffffffffffffffffffffffffffffffffffffffff1673ffffffffffffffffffffffffffffffffffffffff1681526020019081526020016000206004018054806001018281610d0691906122d0565b9160005260206000209001600085909190916101000a81548173ffffffffffffffffffffffffffffffffffffffff021916908373ffffffffffffffffffffffffffffffffffffffff16021790555050610d5d611b24565b5b505b5050565b600073__AddressVotes__________________________63cb6a023f600360008573ffffffffffffffffffffffffffffffffffffffff1673ffffffffffffffffffffffffffffffffffffffff1681526020019081526020016000206006016000604051602001526040518263ffffffff167c01000000000000000000000000000000000000000000000000000000000281526004018082815260200191505060206040518083038186803b1515610e1a57600080fd5b6102c65a03f41515610e2b57600080fd5b505050604051805190509050919050565b610e446122fc565b600360008373ffffffffffffffffffffffffffffffffffffffff1673ffffffffffffffffffffffffffffffffffffffff168152602001908152602001600020600401805480602002602001604051908101604052809291908181526020018280548015610f0657602002820191906000526020600020905b8160009054906101000a900473ffffffffffffffffffffffffffffffffffffffff1673ffffffffffffffffffffffffffffffffffffffff1681526020019060010190808311610ebc575b50505050509050919050565b601e81565b6000809054906101000a900473ffffffffffffffffffffffffffffffffffffffff1673ffffffffffffffffffffffffffffffffffffffff163373ffffffffffffffffffffffffffffffffffffffff16141515610f7257600080fd5b60026001908054610f84929190612310565b507f8564cd629b15f47dc310d45bcbfc9bcf5420b0d51bf0659a16c67f91d276325360016040518080602001828103825283818154815260200191508054801561102357602002820191906000526020600020905b8160009054906101000a900473ffffffffffffffffffffffffffffffffffffffff1673ffffffffffffffffffffffffffffffffffffffff1681526020019060010190808311610fd9575b50509250505060405180910390a1565b6000809054906101000a900473ffffffffffffffffffffffffffffffffffffffff1681565b6110606122fc565b60018054806020026020016040519081016040528092919081815260200182805480156110e257602002820191906000526020600020905b8160009054906101000a900473ffffffffffffffffffffffffffffffffffffffff1673ffffffffffffffffffffffffffffffffffffffff1681526020019060010190808311611098575b5050505050905090565b6000600360008373ffffffffffffffffffffffffffffffffffffffff1673ffffffffffffffffffffffffffffffffffffffff16815260200190815260200160002060050160008473ffffffffffffffffffffffffffffffffffffffff1673ffffffffffffffffffffffffffffffffffffffff16815260200190815260200160002054905092915050565b600073__AddressVotes__________________________63cb6a023f600360008573ffffffffffffffffffffffffffffffffffffffff1673ffffffffffffffffffffffffffffffffffffffff1681526020019081526020016000206002016000604051602001526040518263ffffffff167c01000000000000000000000000000000000000000000000000000000000281526004018082815260200191505060206040518083038186803b151561122c57600080fd5b6102c65a03f4151561123d57600080fd5b505050604051805190509050919050565b600360003373ffffffffffffffffffffffffffffffffffffffff1673ffffffffffffffffffffffffffffffffffffffff16815260200190815260200160002060000160009054906101000a900460ff1615156112a957600080fd5b8073__AddressVotes__________________________63f473765c600360008473ffffffffffffffffffffffffffffffffffffffff1673ffffffffffffffffffffffffffffffffffffffff168152602001908152602001600020600201336000604051602001526040518363ffffffff167c0100000000000000000000000000000000000000000000000000000000028152600401808381526020018273ffffffffffffffffffffffffffffffffffffffff1673ffffffffffffffffffffffffffffffffffffffff1681526020019250505060206040518083038186803b151561139257600080fd5b6102c65a03f415156113a357600080fd5b505050604051805190501515156113b957600080fd5b601e6002805490501015156113cd57600080fd5b6113d682611d07565b73__AddressVotes__________________________630e420ae3600360008573ffffffffffffffffffffffffffffffffffffffff1673ffffffffffffffffffffffffffffffffffffffff168152602001908152602001600020600201336000604051602001526040518363ffffffff167c0100000000000000000000000000000000000000000000000000000000028152600401808381526020018273ffffffffffffffffffffffffffffffffffffffff1673ffffffffffffffffffffffffffffffffffffffff1681526020019250505060206040518083038186803b15156114be57600080fd5b6102c65a03f415156114cf57600080fd5b5050506040518051905050600360003373ffffffffffffffffffffffffffffffffffffffff1673ffffffffffffffffffffffffffffffffffffffff168152602001908152602001600020600401805480600101828161152e91906122d0565b9160005260206000209001600084909190916101000a81548173ffffffffffffffffffffffffffffffffffffffff021916908373ffffffffffffffffffffffffffffffffffffffff1602179055505061158682610a3e565b600115158273ffffffffffffffffffffffffffffffffffffffff163373ffffffffffffffffffffffffffffffffffffffff167f60a1c3e732289b52ec44f82efb957034706a3947c722c2eb154d6f39d89f69ce60405160405180910390a45050565b8060006115f533836110ec565b1115611785576000600360008473ffffffffffffffffffffffffffffffffffffffff1673ffffffffffffffffffffffffffffffffffffffff16815260200190815260200160002060050160003373ffffffffffffffffffffffffffffffffffffffff1673ffffffffffffffffffffffffffffffffffffffff1681526020019081526020016000208190555073__AddressVotes__________________________63dab5be0b600360008573ffffffffffffffffffffffffffffffffffffffff1673ffffffffffffffffffffffffffffffffffffffff168152602001908152602001600020600601336000604051602001526040518363ffffffff167c0100000000000000000000000000000000000000000000000000000000028152600401808381526020018273ffffffffffffffffffffffffffffffffffffffff1673ffffffffffffffffffffffffffffffffffffffff1681526020019250505060206040518083038186803b151561176857600080fd5b6102c65a03f4151561177957600080fd5b50505060405180519050505b5050565b600360003373ffffffffffffffffffffffffffffffffffffffff1673ffffffffffffffffffffffffffffffffffffffff16815260200190815260200160002060000160009054906101000a900460ff1615156117e457600080fd5b816014810143111515156117f757600080fd5b61180133856119ab565b600115158473ffffffffffffffffffffffffffffffffffffffff163373ffffffffffffffffffffffffffffffffffffffff167f32c78b6140c46745a46e88cd883707d70dbd2f06d13dd76fe5f499c01290da4f60405160405180910390a450505050565b61546081565b601481565b600360003373ffffffffffffffffffffffffffffffffffffffff1673ffffffffffffffffffffffffffffffffffffffff16815260200190815260200160002060000160009054906101000a900460ff1615156118cb57600080fd5b81600360008273ffffffffffffffffffffffffffffffffffffffff1673ffffffffffffffffffffffffffffffffffffffff16815260200190815260200160002060000160009054906101000a900460ff16156119a6578160148101431115151561193457600080fd5b61193d84611f06565b61194684611fa2565b600015158473ffffffffffffffffffffffffffffffffffffffff163373ffffffffffffffffffffffffffffffffffffffff167f32c78b6140c46745a46e88cd883707d70dbd2f06d13dd76fe5f499c01290da4f60405160405180910390a4505b505050565b73__AddressVotes__________________________63dab5be0b600360008473ffffffffffffffffffffffffffffffffffffffff1673ffffffffffffffffffffffffffffffffffffffff168152602001908152602001600020600201846000604051602001526040518363ffffffff167c0100000000000000000000000000000000000000000000000000000000028152600401808381526020018273ffffffffffffffffffffffffffffffffffffffff1673ffffffffffffffffffffffffffffffffffffffff1681526020019250505060206040518083038186803b1515611a9357600080fd5b6102c65a03f41515611aa457600080fd5b505050604051805190501515611ab957600080fd5b600015158173ffffffffffffffffffffffffffffffffffffffff168373ffffffffffffffffffffffffffffffffffffffff167f60a1c3e732289b52ec44f82efb957034706a3947c722c2eb154d6f39d89f69ce60405160405180910390a4611b20816106a6565b5050565b6000809054906101000a900473ffffffffffffffffffffffffffffffffffffffff1673ffffffffffffffffffffffffffffffffffffffff1663a0285c01600143034060026040518363ffffffff167c0100000000000000000000000000000000000000000000000000000000028152600401808360001916600019168152602001806020018281038252838181548152602001915080548015611c1c57602002820191906000526020600020905b8160009054906101000a900473ffffffffffffffffffffffffffffffffffffffff1673ffffffffffffffffffffffffffffffffffffffff1681526020019060010190808311611bd2575b50509350505050600060405180830381600087803b1515611c3c57600080fd5b6102c65a03f11515611c4d57600080fd5b5050506001430340600019167f55252fa6eee4741b4e24a74a70e9c11fd2c2281df8d6ea13126ff845f7825c89600260405180806020018281038252838181548152602001915080548015611cf757602002820191906000526020600020905b8160009054906101000a900473ffffffffffffffffffffffffffffffffffffffff1673ffffffffffffffffffffffffffffffffffffffff1681526020019060010190808311611cad575b50509250505060405180910390a2565b80600073__AddressVotes__________________________63cb6a023f600360008573ffffffffffffffffffffffffffffffffffffffff1673ffffffffffffffffffffffffffffffffffffffff1681526020019081526020016000206002016000604051602001526040518263ffffffff167c01000000000000000000000000000000000000000000000000000000000281526004018082815260200191505060206040518083038186803b1515611dbe57600080fd5b6102c65a03f41515611dcf57600080fd5b505050604051805190501415611f025760a0604051908101604052806000151581526020016002805490508152602001602060405190810160405280600081525081526020016000604051805910611e245750595b908082528060200260200182016040525081526020016020604051908101604052806000815250815250600360008473ffffffffffffffffffffffffffffffffffffffff1673ffffffffffffffffffffffffffffffffffffffff16815260200190815260200160002060008201518160000160006101000a81548160ff021916908315150217905550602082015181600101556040820151816002016000820151816000015550506060820151816004019080519060200190611ee8929190612362565b506080820151816006016000820151816000015550509050505b5050565b806000611f1333836110ec565b1415611f9e5742600360008473ffffffffffffffffffffffffffffffffffffffff1673ffffffffffffffffffffffffffffffffffffffff16815260200190815260200160002060050160003373ffffffffffffffffffffffffffffffffffffffff1673ffffffffffffffffffffffffffffffffffffffff168152602001908152602001600020819055505b5050565b8061546042611fb133846110ec565b0311156120c65773__AddressVotes__________________________630e420ae3600360008573ffffffffffffffffffffffffffffffffffffffff1673ffffffffffffffffffffffffffffffffffffffff168152602001908152602001600020600601336000604051602001526040518363ffffffff167c0100000000000000000000000000000000000000000000000000000000028152600401808381526020018273ffffffffffffffffffffffffffffffffffffffff1673ffffffffffffffffffffffffffffffffffffffff1681526020019250505060206040518083038186803b15156120a057600080fd5b6102c65a03f415156120b157600080fd5b50505060405180519050506120c5826120ca565b5b5050565b80600280805490508115156120db57fe5b046120e582610d64565b111561227f576000600360008473ffffffffffffffffffffffffffffffffffffffff1673ffffffffffffffffffffffffffffffffffffffff16815260200190815260200160002060050160003373ffffffffffffffffffffffffffffffffffffffff1673ffffffffffffffffffffffffffffffffffffffff1681526020019081526020016000208190555073__AddressVotes__________________________63dab5be0b600360008573ffffffffffffffffffffffffffffffffffffffff1673ffffffffffffffffffffffffffffffffffffffff168152602001908152602001600020600601336000604051602001526040518363ffffffff167c0100000000000000000000000000000000000000000000000000000000028152600401808381526020018273ffffffffffffffffffffffffffffffffffffffff1673ffffffffffffffffffffffffffffffffffffffff1681526020019250505060206040518083038186803b151561225857600080fd5b6102c65a03f4151561226957600080fd5b505050604051805190505061227e33836119ab565b5b5050565b8154818355818115116122aa578183600052602060002091820191016122a991906123ec565b5b505050565b50805460008255906000526020600020908101906122cd91906123ec565b50565b8154818355818115116122f7578183600052602060002091820191016122f691906123ec565b5b505050565b602060405190810160405280600081525090565b8280548282559060005260206000209081019282156123515760005260206000209182015b82811115612350578254825591600101919060010190612335565b5b50905061235e9190612411565b5090565b8280548282559060005260206000209081019282156123db579160200282015b828111156123da5782518260006101000a81548173ffffffffffffffffffffffffffffffffffffffff021916908373ffffffffffffffffffffffffffffffffffffffff16021790555091602001919060010190612382565b5b5090506123e89190612411565b5090565b61240e91905b8082111561240a5760008160009055506001016123f2565b5090565b90565b61245191905b8082111561244d57600081816101000a81549073ffffffffffffffffffffffffffffffffffffffff021916905550600101612417565b5090565b905600a165627a7a723058206c71949c3f60222970b701a5a7c287150316ff71f624678e9e6fd333907374b40029",
  "source": "//! Copyright 2017 Peter Czaban, Parity Technologies Ltd.\n//!\n//! Licensed under the Apache License, Version 2.0 (the \"License\");\n//! you may not use this file except in compliance with the License.\n//! You may obtain a copy of the License at\n//!\n//!     http://www.apache.org/licenses/LICENSE-2.0\n//!\n//! Unless required by applicable law or agreed to in writing, software\n//! distributed under the License is distributed on an \"AS IS\" BASIS,\n//! WITHOUT WARRANTIES OR CONDITIONS OF ANY KIND, either express or implied.\n//! See the License for the specific language governing permissions and\n//! limitations under the License.\n\npragma solidity ^0.4.15;\n\nimport \"./interfaces/RelaySet.sol\";\nimport \"./libraries/AddressVotes.sol\";\n\n// Existing validators can give support to addresses.\n// Support can not be added once MAX_VALIDATORS are present.\n// Once given, support can be removed.\n// Addresses supported by more than half of the existing validators are the validators.\n// Malicious behaviour causes support removal.\n// Benign misbehaviour causes supprt removal if its called again after MAX_INACTIVITY.\n// Benign misbehaviour can be absolved before being called the second time.\n\ncontract InnerMajoritySet is InnerSet {\n\t// EVENTS\n\tevent Report(address indexed reporter, address indexed reported, bool indexed malicious);\n\tevent Support(address indexed supporter, address indexed supported, bool indexed added);\n\tevent InitiateChange(bytes32 indexed _parent_hash, address[] _new_set);\n\tevent ChangeFinalized(address[] current_set);\n\n\tstruct ValidatorStatus {\n\t\t// Is this a validator.\n\t\tbool isValidator;\n\t\t// Index in the validatorList.\n\t\tuint index;\n\t\t// Validator addresses which supported the address.\n\t\tAddressVotes.Data support;\n\t\t// Keeps track of the votes given out while the address is a validator.\n\t\taddress[] supported;\n\t\t// Initial benign misbehaviour time tracker.\n\t\tmapping(address => uint) firstBenign;\n\t\t// Repeated benign misbehaviour counter.\n\t\tAddressVotes.Data benignMisbehaviour;\n\t}\n\n\t// Support can not be added once this number of validators is reached.\n\tuint public constant MAX_VALIDATORS = 30;\n\t// Time after which the validators will report a validator as malicious.\n\tuint public constant MAX_INACTIVITY = 6 hours;\n\t// Ignore misbehaviour older than this number of blocks.\n\tuint public constant RECENT_BLOCKS = 20;\n\n\t// STATE\n\n\t// Current list of addresses entitled to participate in the consensus.\n\taddress[] public validatorsList;\n\t// Pending list of validator addresses.\n\taddress[] pendingList = [0xf5777f8133aae2734396ab1d43ca54ad11bfb737];\n\t// Tracker of status for each address.\n\tmapping(address => ValidatorStatus) validatorsStatus;\n\n\t// Used to lower the constructor cost.\n\tAddressVotes.Data initialSupport;\n\n\t// Each validator is initially supported by all others.\n\tfunction InnerMajoritySet() public {\n\t\tinitialSupport.count = pendingList.length;\n\t\tfor (uint i = 0; i < pendingList.length; i++) {\n\t\t\taddress supporter = pendingList[i];\n\t\t\tinitialSupport.inserted[supporter] = true;\n\t\t}\n\n\t\tfor (uint j = 0; j < pendingList.length; j++) {\n\t\t\taddress validator = pendingList[j];\n\t\t\tvalidatorsStatus[validator] = ValidatorStatus({\n\t\t\t\tisValidator: true,\n\t\t\t\tindex: j,\n\t\t\t\tsupport: initialSupport,\n\t\t\t\tsupported: pendingList,\n\t\t\t\tbenignMisbehaviour: AddressVotes.Data({ count: 0 })\n\t\t\t});\n\t\t}\n\t\tvalidatorsList = pendingList;\n\t}\n\n\t// Called on every block to update node validator list.\n\tfunction getValidators() public constant returns (address[]) {\n\t\treturn validatorsList;\n\t}\n\n\t// Log desire to change the current list.\n\tfunction initiateChange() private {\n\t\touterSet.initiateChange(block.blockhash(block.number - 1), pendingList);\n\t\tInitiateChange(block.blockhash(block.number - 1), pendingList);\n\t}\n\n\tfunction finalizeChange() public only_outer {\n\t\tvalidatorsList = pendingList;\n\t\tChangeFinalized(validatorsList);\n\t}\n\n\t// SUPPORT LOOKUP AND MANIPULATION\n\n\t// Find the total support for a given address.\n\tfunction getSupport(address validator) public constant returns (uint) {\n\t\treturn AddressVotes.count(validatorsStatus[validator].support);\n\t}\n\n\tfunction getSupported(address validator) public constant returns (address[]) {\n\t\treturn validatorsStatus[validator].supported;\n\t}\n\n\t// Vote to include a validator.\n\tfunction addSupport(address validator) public only_validator not_voted(validator) free_validator_slots {\n\t\tnewStatus(validator);\n\t\tAddressVotes.insert(validatorsStatus[validator].support, msg.sender);\n\t\tvalidatorsStatus[msg.sender].supported.push(validator);\n\t\taddValidator(validator);\n\t\tSupport(msg.sender, validator, true);\n\t}\n\n\t// Remove support for a validator.\n\tfunction removeSupport(address sender, address validator) private {\n\t\trequire(AddressVotes.remove(validatorsStatus[validator].support, sender));\n\t\tSupport(sender, validator, false);\n\t\t// Remove validator from the list if there is not enough support.\n\t\tremoveValidator(validator);\n\t}\n\n\t// MALICIOUS BEHAVIOUR HANDLING\n\n\t// Called when a validator should be removed.\n\tfunction reportMalicious(address validator, uint blockNumber, bytes proof) public only_validator is_recent(blockNumber) {\n\t\tremoveSupport(msg.sender, validator);\n\t\tReport(msg.sender, validator, true);\n\t}\n\n\t// BENIGN MISBEHAVIOUR HANDLING\n\n\t// Report that a validator has misbehaved in a benign way.\n\tfunction reportBenign(address validator, uint blockNumber) public only_validator is_validator(validator) is_recent(blockNumber) {\n\t\tfirstBenign(validator);\n\t\trepeatedBenign(validator);\n\t\tReport(msg.sender, validator, false);\n\t}\n\n\t// Find the total number of repeated misbehaviour votes.\n\tfunction getRepeatedBenign(address validator) public constant returns (uint) {\n\t\treturn AddressVotes.count(validatorsStatus[validator].benignMisbehaviour);\n\t}\n\n\t// Track the first benign misbehaviour.\n\tfunction firstBenign(address validator) private has_not_benign_misbehaved(validator) {\n\t\tvalidatorsStatus[validator].firstBenign[msg.sender] = now;\n\t}\n\n\t// Report that a validator has been repeatedly misbehaving.\n\tfunction repeatedBenign(address validator) private has_repeatedly_benign_misbehaved(validator) {\n\t\tAddressVotes.insert(validatorsStatus[validator].benignMisbehaviour, msg.sender);\n\t\tconfirmedRepeatedBenign(validator);\n\t}\n\n\t// When enough long term benign misbehaviour votes have been seen, remove support.\n\tfunction confirmedRepeatedBenign(address validator) private agreed_on_repeated_benign(validator) {\n\t\tvalidatorsStatus[validator].firstBenign[msg.sender] = 0;\n\t\tAddressVotes.remove(validatorsStatus[validator].benignMisbehaviour, msg.sender);\n\t\tremoveSupport(msg.sender, validator);\n\t}\n\n\t// Absolve a validator from a benign misbehaviour.\n\tfunction absolveFirstBenign(address validator) public has_benign_misbehaved(validator) {\n\t\tvalidatorsStatus[validator].firstBenign[msg.sender] = 0;\n\t\tAddressVotes.remove(validatorsStatus[validator].benignMisbehaviour, msg.sender);\n\t}\n\n\t// PRIVATE UTILITY FUNCTIONS\n\n\t// Add a status tracker for unknown validator.\n\tfunction newStatus(address validator) private has_no_votes(validator) {\n\t\tvalidatorsStatus[validator] = ValidatorStatus({\n\t\t\tisValidator: false,\n\t\t\tindex: pendingList.length,\n\t\t\tsupport: AddressVotes.Data({ count: 0 }),\n\t\t\tsupported: new address[](0),\n\t\t\tbenignMisbehaviour: AddressVotes.Data({ count: 0 })\n\t\t});\n\t}\n\n\t// ENACTMENT FUNCTIONS (called when support gets out of line with the validator list)\n\n\t// Add the validator if supported by majority.\n\t// Since the number of validators increases it is possible to some fall below the threshold.\n\tfunction addValidator(address validator) public is_not_validator(validator) has_high_support(validator) {\n\t\tvalidatorsStatus[validator].index = pendingList.length;\n\t\tpendingList.push(validator);\n\t\tvalidatorsStatus[validator].isValidator = true;\n\t\t// New validator should support itself.\n\t\tAddressVotes.insert(validatorsStatus[validator].support, validator);\n\t\tvalidatorsStatus[validator].supported.push(validator);\n\t\tinitiateChange();\n\t}\n\n\t// Remove a validator without enough support.\n\t// Can be called to clean low support validators after making the list longer.\n\tfunction removeValidator(address validator) public is_validator(validator) has_low_support(validator) {\n\t\tuint removedIndex = validatorsStatus[validator].index;\n\t\t// Can not remove the last validator.\n\t\tuint lastIndex = pendingList.length-1;\n\t\taddress lastValidator = pendingList[lastIndex];\n\t\t// Override the removed validator with the last one.\n\t\tpendingList[removedIndex] = lastValidator;\n\t\t// Update the index of the last validator.\n\t\tvalidatorsStatus[lastValidator].index = removedIndex;\n\t\tdelete pendingList[lastIndex];\n\t\tpendingList.length--;\n\t\t// Reset validator status.\n\t\tvalidatorsStatus[validator].index = 0;\n\t\tvalidatorsStatus[validator].isValidator = false;\n\t\t// Remove all support given by the removed validator.\n\t\taddress[] storage toRemove = validatorsStatus[validator].supported;\n\t\tfor (uint i = 0; i < toRemove.length; i++) {\n\t\t\tremoveSupport(validator, toRemove[i]);\n\t\t}\n\t\tdelete validatorsStatus[validator].supported;\n\t\tinitiateChange();\n\t}\n\n\t// MODIFIERS\n\n\tfunction highSupport(address validator) public constant returns (bool) {\n\t\treturn getSupport(validator) > pendingList.length/2;\n\t}\n\n\tfunction firstBenignReported(address reporter, address validator) public constant returns (uint) {\n\t\treturn validatorsStatus[validator].firstBenign[reporter];\n\t}\n\n\tmodifier has_high_support(address validator) {\n\t\tif (highSupport(validator)) { _; }\n\t}\n\n\tmodifier has_low_support(address validator) {\n\t\tif (!highSupport(validator)) { _; }\n\t}\n\n\tmodifier has_not_benign_misbehaved(address validator) {\n\t\tif (firstBenignReported(msg.sender, validator) == 0) { _; }\n\t}\n\n\tmodifier has_benign_misbehaved(address validator) {\n\t\tif (firstBenignReported(msg.sender, validator) > 0) { _; }\n\t}\n\n\tmodifier has_repeatedly_benign_misbehaved(address validator) {\n\t\tif (firstBenignReported(msg.sender, validator) - now > MAX_INACTIVITY) { _; }\n\t}\n\n\tmodifier agreed_on_repeated_benign(address validator) {\n\t\tif (getRepeatedBenign(validator) > pendingList.length/2) { _; }\n\t}\n\n\tmodifier free_validator_slots() {\n\t\trequire(pendingList.length < MAX_VALIDATORS);\n\t\t_;\n\t}\n\n\tmodifier only_validator() {\n\t\trequire(validatorsStatus[msg.sender].isValidator);\n\t\t_;\n\t}\n\n\tmodifier is_validator(address someone) {\n\t\tif (validatorsStatus[someone].isValidator) { _; }\n\t}\n\n\tmodifier is_not_validator(address someone) {\n\t\tif (!validatorsStatus[someone].isValidator) { _; }\n\t}\n\n\tmodifier not_voted(address validator) {\n\t\trequire(!AddressVotes.contains(validatorsStatus[validator].support, msg.sender));\n\t\t_;\n\t}\n\n\tmodifier has_no_votes(address validator) {\n\t\tif (AddressVotes.count(validatorsStatus[validator].support) == 0) { _; }\n\t}\n\n\tmodifier is_recent(uint blockNumber) {\n\t\trequire(block.number <= blockNumber + RECENT_BLOCKS);\n\t\t_;\n\t}\n}\n",
  "sourcePath": "/home/yongwen/work/dlt/private-network/contracts/validator/contracts/InnerMajoritySet.sol",
  "compiler": {
    "name": "solc",
    "version": "0.4.18+commit.9cf6e910.Emscripten.clang"
  },
  "schemaVersion": "1.0.1",
  "updatedAt": "2018-01-19T06:38:42.093Z"
}