{
  "contractName": "Kovan",
  "abi": [
    {
      "constant": false,
      "inputs": [],
      "name": "initializeValidators",
      "outputs": [],
      "payable": false,
      "stateMutability": "nonpayable",
      "type": "function"
    },
    {
      "constant": true,
      "inputs": [
        {
          "name": "validator",
          "type": "address"
        }
      ],
      "name": "highSupport",
      "outputs": [
        {
          "name": "",
          "type": "bool"
        }
      ],
      "payable": false,
      "stateMutability": "view",
      "type": "function"
    },
    {
      "constant": true,
      "inputs": [
        {
          "name": "",
          "type": "uint256"
        }
      ],
      "name": "validatorsList",
      "outputs": [
        {
          "name": "",
          "type": "address"
        }
      ],
      "payable": false,
      "stateMutability": "view",
      "type": "function"
    },
    {
      "constant": false,
      "inputs": [
        {
          "name": "validator",
          "type": "address"
        }
      ],
      "name": "removeValidator",
      "outputs": [],
      "payable": false,
      "stateMutability": "nonpayable",
      "type": "function"
    },
    {
      "constant": false,
      "inputs": [
        {
          "name": "validator",
          "type": "address"
        }
      ],
      "name": "addValidator",
      "outputs": [],
      "payable": false,
      "stateMutability": "nonpayable",
      "type": "function"
    },
    {
      "constant": true,
      "inputs": [
        {
          "name": "validator",
          "type": "address"
        }
      ],
      "name": "getRepeatedBenign",
      "outputs": [
        {
          "name": "",
          "type": "uint256"
        }
      ],
      "payable": false,
      "stateMutability": "view",
      "type": "function"
    },
    {
      "constant": true,
      "inputs": [
        {
          "name": "validator",
          "type": "address"
        }
      ],
      "name": "getSupported",
      "outputs": [
        {
          "name": "",
          "type": "address[]"
        }
      ],
      "payable": false,
      "stateMutability": "view",
      "type": "function"
    },
    {
      "constant": true,
      "inputs": [],
      "name": "MAX_VALIDATORS",
      "outputs": [
        {
          "name": "",
          "type": "uint256"
        }
      ],
      "payable": false,
      "stateMutability": "view",
      "type": "function"
    },
    {
      "constant": false,
      "inputs": [],
      "name": "finalizeChange",
      "outputs": [],
      "payable": false,
      "stateMutability": "nonpayable",
      "type": "function"
    },
    {
      "constant": true,
      "inputs": [],
      "name": "outerSet",
      "outputs": [
        {
          "name": "",
          "type": "address"
        }
      ],
      "payable": false,
      "stateMutability": "view",
      "type": "function"
    },
    {
      "constant": true,
      "inputs": [],
      "name": "getValidators",
      "outputs": [
        {
          "name": "",
          "type": "address[]"
        }
      ],
      "payable": false,
      "stateMutability": "view",
      "type": "function"
    },
    {
      "constant": true,
      "inputs": [
        {
          "name": "reporter",
          "type": "address"
        },
        {
          "name": "validator",
          "type": "address"
        }
      ],
      "name": "firstBenignReported",
      "outputs": [
        {
          "name": "",
          "type": "uint256"
        }
      ],
      "payable": false,
      "stateMutability": "view",
      "type": "function"
    },
    {
      "constant": true,
      "inputs": [
        {
          "name": "validator",
          "type": "address"
        }
      ],
      "name": "getSupport",
      "outputs": [
        {
          "name": "",
          "type": "uint256"
        }
      ],
      "payable": false,
      "stateMutability": "view",
      "type": "function"
    },
    {
      "constant": false,
      "inputs": [
        {
          "name": "validator",
          "type": "address"
        }
      ],
      "name": "addSupport",
      "outputs": [],
      "payable": false,
      "stateMutability": "nonpayable",
      "type": "function"
    },
    {
      "constant": false,
      "inputs": [
        {
          "name": "validator",
          "type": "address"
        }
      ],
      "name": "absolveFirstBenign",
      "outputs": [],
      "payable": false,
      "stateMutability": "nonpayable",
      "type": "function"
    },
    {
      "constant": false,
      "inputs": [
        {
          "name": "validator",
          "type": "address"
        },
        {
          "name": "blockNumber",
          "type": "uint256"
        },
        {
          "name": "proof",
          "type": "bytes"
        }
      ],
      "name": "reportMalicious",
      "outputs": [],
      "payable": false,
      "stateMutability": "nonpayable",
      "type": "function"
    },
    {
      "constant": true,
      "inputs": [],
      "name": "MAX_INACTIVITY",
      "outputs": [
        {
          "name": "",
          "type": "uint256"
        }
      ],
      "payable": false,
      "stateMutability": "view",
      "type": "function"
    },
    {
      "constant": true,
      "inputs": [],
      "name": "RECENT_BLOCKS",
      "outputs": [
        {
          "name": "",
          "type": "uint256"
        }
      ],
      "payable": false,
      "stateMutability": "view",
      "type": "function"
    },
    {
      "constant": false,
      "inputs": [
        {
          "name": "validator",
          "type": "address"
        },
        {
          "name": "blockNumber",
          "type": "uint256"
        }
      ],
      "name": "reportBenign",
      "outputs": [],
      "payable": false,
      "stateMutability": "nonpayable",
      "type": "function"
    },
    {
      "inputs": [],
      "payable": false,
      "stateMutability": "nonpayable",
      "type": "constructor"
    },
    {
      "anonymous": false,
      "inputs": [
        {
          "indexed": true,
          "name": "reporter",
          "type": "address"
        },
        {
          "indexed": true,
          "name": "reported",
          "type": "address"
        },
        {
          "indexed": true,
          "name": "malicious",
          "type": "bool"
        }
      ],
      "name": "Report",
      "type": "event"
    },
    {
      "anonymous": false,
      "inputs": [
        {
          "indexed": true,
          "name": "supporter",
          "type": "address"
        },
        {
          "indexed": true,
          "name": "supported",
          "type": "address"
        },
        {
          "indexed": true,
          "name": "added",
          "type": "bool"
        }
      ],
      "name": "Support",
      "type": "event"
    },
    {
      "anonymous": false,
      "inputs": [
        {
          "indexed": true,
          "name": "_parent_hash",
          "type": "bytes32"
        },
        {
          "indexed": false,
          "name": "_new_set",
          "type": "address[]"
        }
      ],
      "name": "InitiateChange",
      "type": "event"
    },
    {
      "anonymous": false,
      "inputs": [
        {
          "indexed": false,
          "name": "current_set",
          "type": "address[]"
        }
      ],
      "name": "ChangeFinalized",
      "type": "event"
    }
  ],
  "bytecode": "0x606060405260206040519081016040528073f5777f8133aae2734396ab1d43ca54ad11bfb73773ffffffffffffffffffffffffffffffffffffffff1673ffffffffffffffffffffffffffffffffffffffff16815250600290600162000066929190620006a9565b5034156200007357600080fd5b600080600080600080600280549050600460000181905550600093505b6002805490508410156200014557600284815481101515620000ae57fe5b906000526020600020900160009054906101000a900473ffffffffffffffffffffffffffffffffffffffff1692506001600460010160008573ffffffffffffffffffffffffffffffffffffffff1673ffffffffffffffffffffffffffffffffffffffff16815260200190815260200160002060006101000a81548160ff021916908315150217905550838060010194505062000090565b600091505b60028054905082101562000333576002828154811015156200016857fe5b906000526020600020900160009054906101000a900473ffffffffffffffffffffffffffffffffffffffff16905060a060405190810160405280600115158152602001838152602001600460206040519081016040529081600082015481525050815260200160028054806020026020016040519081016040528092919081815260200182805480156200025257602002820191906000526020600020905b8160009054906101000a900473ffffffffffffffffffffffffffffffffffffffff1673ffffffffffffffffffffffffffffffffffffffff168152602001906001019080831162000207575b505050505081526020016020604051908101604052806000815250815250600360008373ffffffffffffffffffffffffffffffffffffffff1673ffffffffffffffffffffffffffffffffffffffff16815260200190815260200160002060008201518160000160006101000a81548160ff0219169083151502179055506020820151816001015560408201518160020160008201518160000155505060608201518160040190805190602001906200030c92919062000738565b5060808201518160060160008201518160000155505090505081806001019250506200014a565b6002600190805462000347929190620007c7565b50505050506101206040519081016040528072d6cc1ba9cf89bd2e58009741f4f7325badc0ed73ffffffffffffffffffffffffffffffffffffffff1673ffffffffffffffffffffffffffffffffffffffff16815260200172427feae2419c15b89d1c21af10d1b6650a4d3d73ffffffffffffffffffffffffffffffffffffffff1673ffffffffffffffffffffffffffffffffffffffff168152602001734ed9b08e6354c70fe6f8cb0411b0d3246b424d6c73ffffffffffffffffffffffffffffffffffffffff1673ffffffffffffffffffffffffffffffffffffffff1681526020017220ee4be0e2027d76603cb751ee069519ba81a173ffffffffffffffffffffffffffffffffffffffff1673ffffffffffffffffffffffffffffffffffffffff1681526020017210f94b296a852aaac52ea6c5ac72e03afd032d73ffffffffffffffffffffffffffffffffffffffff1673ffffffffffffffffffffffffffffffffffffffff168152602001727733a1fe69cf3f2cf989f81c7b4cac1693387a73ffffffffffffffffffffffffffffffffffffffff1673ffffffffffffffffffffffffffffffffffffffff16815260200172e6d2b931f55a3f1701c7389d592a777889787973ffffffffffffffffffffffffffffffffffffffff1673ffffffffffffffffffffffffffffffffffffffff16815260200172e4a10650e5a6d6001c38ff8e64f97016a1645c73ffffffffffffffffffffffffffffffffffffffff1673ffffffffffffffffffffffffffffffffffffffff16815260200172a0a24b9f0e5ec7aa4c7389b8302fd0123194de73ffffffffffffffffffffffffffffffffffffffff1673ffffffffffffffffffffffffffffffffffffffff168152506002906009620005d79291906200081e565b50600280549050600460000181905550600091505b600280549050821015620006a1576002828154811015156200060a57fe5b906000526020600020900160009054906101000a900473ffffffffffffffffffffffffffffffffffffffff1690506001600460010160008373ffffffffffffffffffffffffffffffffffffffff1673ffffffffffffffffffffffffffffffffffffffff16815260200190815260200160002060006101000a81548160ff0219169083151502179055508180600101925050620005ec565b5050620008f3565b82805482825590600052602060002090810192821562000725579160200282015b82811115620007245782518260006101000a81548173ffffffffffffffffffffffffffffffffffffffff021916908373ffffffffffffffffffffffffffffffffffffffff16021790555091602001919060010190620006ca565b5b509050620007349190620008ad565b5090565b828054828255906000526020600020908101928215620007b4579160200282015b82811115620007b35782518260006101000a81548173ffffffffffffffffffffffffffffffffffffffff021916908373ffffffffffffffffffffffffffffffffffffffff1602179055509160200191906001019062000759565b5b509050620007c39190620008ad565b5090565b8280548282559060005260206000209081019282156200080b5760005260206000209182015b828111156200080a578254825591600101919060010190620007ed565b5b5090506200081a9190620008ad565b5090565b8280548282559060005260206000209081019282156200089a579160200282015b82811115620008995782518260006101000a81548173ffffffffffffffffffffffffffffffffffffffff021916908373ffffffffffffffffffffffffffffffffffffffff160217905550916020019190600101906200083f565b5b509050620008a99190620008ad565b5090565b620008f091905b80821115620008ec57600081816101000a81549073ffffffffffffffffffffffffffffffffffffffff021916905550600101620008b4565b5090565b90565b6126d880620009036000396000f300606060405260043610610107576000357c0100000000000000000000000000000000000000000000000000000000900463ffffffff16806305c818651461010c5780631214622214610121578063170f92911461017257806340a141ff146101d55780634d238c8e1461020e5780635798a9b614610247578063695764c814610294578063714897df14610322578063752862111461034b578063a6b340b614610360578063b7ab4db5146103b5578063b7fa38501461041f578063b88c91471461048b578063bc201a9d146104d8578063c06998d614610511578063c476dd401461054a578063d386807c146105cf578063d4a3bde1146105f8578063d69f13bb14610621575b600080fd5b341561011757600080fd5b61011f610663565b005b341561012c57600080fd5b610158600480803573ffffffffffffffffffffffffffffffffffffffff1690602001909190505061089b565b604051808215151515815260200191505060405180910390f35b341561017d57600080fd5b61019360048080359060200190919050506108bf565b604051808273ffffffffffffffffffffffffffffffffffffffff1673ffffffffffffffffffffffffffffffffffffffff16815260200191505060405180910390f35b34156101e057600080fd5b61020c600480803573ffffffffffffffffffffffffffffffffffffffff169060200190919050506108fe565b005b341561021957600080fd5b610245600480803573ffffffffffffffffffffffffffffffffffffffff16906020019091905050610c96565b005b341561025257600080fd5b61027e600480803573ffffffffffffffffffffffffffffffffffffffff16906020019091905050610fbc565b6040518082815260200191505060405180910390f35b341561029f57600080fd5b6102cb600480803573ffffffffffffffffffffffffffffffffffffffff16906020019091905050611094565b6040518080602001828103825283818151815260200191508051906020019060200280838360005b8381101561030e5780820151818401526020810190506102f3565b505050509050019250505060405180910390f35b341561032d57600080fd5b61033561116a565b6040518082815260200191505060405180910390f35b341561035657600080fd5b61035e61116f565b005b341561036b57600080fd5b61037361128b565b604051808273ffffffffffffffffffffffffffffffffffffffff1673ffffffffffffffffffffffffffffffffffffffff16815260200191505060405180910390f35b34156103c057600080fd5b6103c86112b0565b6040518080602001828103825283818151815260200191508051906020019060200280838360005b8381101561040b5780820151818401526020810190506103f0565b505050509050019250505060405180910390f35b341561042a57600080fd5b610475600480803573ffffffffffffffffffffffffffffffffffffffff1690602001909190803573ffffffffffffffffffffffffffffffffffffffff16906020019091905050611344565b6040518082815260200191505060405180910390f35b341561049657600080fd5b6104c2600480803573ffffffffffffffffffffffffffffffffffffffff169060200190919050506113ce565b6040518082815260200191505060405180910390f35b34156104e357600080fd5b61050f600480803573ffffffffffffffffffffffffffffffffffffffff169060200190919050506114a6565b005b341561051c57600080fd5b610548600480803573ffffffffffffffffffffffffffffffffffffffff16906020019091905050611840565b005b341561055557600080fd5b6105cd600480803573ffffffffffffffffffffffffffffffffffffffff1690602001909190803590602001909190803590602001908201803590602001908080601f016020809104026020016040519081016040528093929190818152602001838380828437820191505050505050919050506119e1565b005b34156105da57600080fd5b6105e2611abd565b6040518082815260200191505060405180910390f35b341561060357600080fd5b61060b611ac3565b6040518082815260200191505060405180910390f35b341561062c57600080fd5b610661600480803573ffffffffffffffffffffffffffffffffffffffff16906020019091908035906020019091905050611ac8565b005b600080600660009054906101000a900460ff1615151561068257600080fd5b600091505b600280549050821015610869576002828154811015156106a357fe5b906000526020600020900160009054906101000a900473ffffffffffffffffffffffffffffffffffffffff16905060a0604051908101604052806001151581526020018381526020016004602060405190810160405290816000820154815250508152602001600280548060200260200160405190810160405280929190818152602001828054801561078b57602002820191906000526020600020905b8160009054906101000a900473ffffffffffffffffffffffffffffffffffffffff1673ffffffffffffffffffffffffffffffffffffffff1681526020019060010190808311610741575b505050505081526020016020604051908101604052806000815250815250600360008373ffffffffffffffffffffffffffffffffffffffff1673ffffffffffffffffffffffffffffffffffffffff16815260200190815260200160002060008201518160000160006101000a81548160ff0219169083151502179055506020820151816001015560408201518160020160008201518160000155505060608201518160040190805190602001906108439291906124db565b506080820151816006016000820151816000015550509050508180600101925050610687565b6001600660006101000a81548160ff02191690831515021790555060026001908054610896929190612565565b505050565b6000600280805490508115156108ad57fe5b046108b7836113ce565b119050919050565b6001818154811015156108ce57fe5b90600052602060002090016000915054906101000a900473ffffffffffffffffffffffffffffffffffffffff1681565b600080600080600085600360008273ffffffffffffffffffffffffffffffffffffffff1673ffffffffffffffffffffffffffffffffffffffff16815260200190815260200160002060000160009054906101000a900460ff1615610c8d57866109668161089b565b1515610c8b57600360008973ffffffffffffffffffffffffffffffffffffffff1673ffffffffffffffffffffffffffffffffffffffff16815260200190815260200160002060010154965060016002805490500395506002868154811015156109cb57fe5b906000526020600020900160009054906101000a900473ffffffffffffffffffffffffffffffffffffffff16945084600288815481101515610a0957fe5b906000526020600020900160006101000a81548173ffffffffffffffffffffffffffffffffffffffff021916908373ffffffffffffffffffffffffffffffffffffffff16021790555086600360008773ffffffffffffffffffffffffffffffffffffffff1673ffffffffffffffffffffffffffffffffffffffff16815260200190815260200160002060010181905550600286815481101515610aa857fe5b906000526020600020900160006101000a81549073ffffffffffffffffffffffffffffffffffffffff02191690556002805480919060019003610aeb91906125b7565b506000600360008a73ffffffffffffffffffffffffffffffffffffffff1673ffffffffffffffffffffffffffffffffffffffff168152602001908152602001600020600101819055506000600360008a73ffffffffffffffffffffffffffffffffffffffff1673ffffffffffffffffffffffffffffffffffffffff16815260200190815260200160002060000160006101000a81548160ff021916908315150217905550600360008973ffffffffffffffffffffffffffffffffffffffff1673ffffffffffffffffffffffffffffffffffffffff1681526020019081526020016000206004019350600092505b8380549050831015610c3457610c27888585815481101515610bf657fe5b906000526020600020900160009054906101000a900473ffffffffffffffffffffffffffffffffffffffff16611c03565b8280600101935050610bd8565b600360008973ffffffffffffffffffffffffffffffffffffffff1673ffffffffffffffffffffffffffffffffffffffff1681526020019081526020016000206004016000610c8291906125e3565b610c8a611d7c565b5b505b50505050505050565b80600360008273ffffffffffffffffffffffffffffffffffffffff1673ffffffffffffffffffffffffffffffffffffffff16815260200190815260200160002060000160009054906101000a900460ff161515610fb85781610cf78161089b565b15610fb657600280549050600360008573ffffffffffffffffffffffffffffffffffffffff1673ffffffffffffffffffffffffffffffffffffffff1681526020019081526020016000206001018190555060028054806001018281610d5c9190612604565b9160005260206000209001600085909190916101000a81548173ffffffffffffffffffffffffffffffffffffffff021916908373ffffffffffffffffffffffffffffffffffffffff160217905550506001600360008573ffffffffffffffffffffffffffffffffffffffff1673ffffffffffffffffffffffffffffffffffffffff16815260200190815260200160002060000160006101000a81548160ff02191690831515021790555073__AddressVotes__________________________630e420ae3600360008673ffffffffffffffffffffffffffffffffffffffff1673ffffffffffffffffffffffffffffffffffffffff168152602001908152602001600020600201856000604051602001526040518363ffffffff167c0100000000000000000000000000000000000000000000000000000000028152600401808381526020018273ffffffffffffffffffffffffffffffffffffffff1673ffffffffffffffffffffffffffffffffffffffff1681526020019250505060206040518083038186803b1515610eee57600080fd5b6102c65a03f41515610eff57600080fd5b5050506040518051905050600360008473ffffffffffffffffffffffffffffffffffffffff1673ffffffffffffffffffffffffffffffffffffffff1681526020019081526020016000206004018054806001018281610f5e9190612604565b9160005260206000209001600085909190916101000a81548173ffffffffffffffffffffffffffffffffffffffff021916908373ffffffffffffffffffffffffffffffffffffffff16021790555050610fb5611d7c565b5b505b5050565b600073__AddressVotes__________________________63cb6a023f600360008573ffffffffffffffffffffffffffffffffffffffff1673ffffffffffffffffffffffffffffffffffffffff1681526020019081526020016000206006016000604051602001526040518263ffffffff167c01000000000000000000000000000000000000000000000000000000000281526004018082815260200191505060206040518083038186803b151561107257600080fd5b6102c65a03f4151561108357600080fd5b505050604051805190509050919050565b61109c612630565b600360008373ffffffffffffffffffffffffffffffffffffffff1673ffffffffffffffffffffffffffffffffffffffff16815260200190815260200160002060040180548060200260200160405190810160405280929190818152602001828054801561115e57602002820191906000526020600020905b8160009054906101000a900473ffffffffffffffffffffffffffffffffffffffff1673ffffffffffffffffffffffffffffffffffffffff1681526020019060010190808311611114575b50505050509050919050565b601e81565b6000809054906101000a900473ffffffffffffffffffffffffffffffffffffffff1673ffffffffffffffffffffffffffffffffffffffff163373ffffffffffffffffffffffffffffffffffffffff161415156111ca57600080fd5b600260019080546111dc929190612565565b507f8564cd629b15f47dc310d45bcbfc9bcf5420b0d51bf0659a16c67f91d276325360016040518080602001828103825283818154815260200191508054801561127b57602002820191906000526020600020905b8160009054906101000a900473ffffffffffffffffffffffffffffffffffffffff1673ffffffffffffffffffffffffffffffffffffffff1681526020019060010190808311611231575b50509250505060405180910390a1565b6000809054906101000a900473ffffffffffffffffffffffffffffffffffffffff1681565b6112b8612630565b600180548060200260200160405190810160405280929190818152602001828054801561133a57602002820191906000526020600020905b8160009054906101000a900473ffffffffffffffffffffffffffffffffffffffff1673ffffffffffffffffffffffffffffffffffffffff16815260200190600101908083116112f0575b5050505050905090565b6000600360008373ffffffffffffffffffffffffffffffffffffffff1673ffffffffffffffffffffffffffffffffffffffff16815260200190815260200160002060050160008473ffffffffffffffffffffffffffffffffffffffff1673ffffffffffffffffffffffffffffffffffffffff16815260200190815260200160002054905092915050565b600073__AddressVotes__________________________63cb6a023f600360008573ffffffffffffffffffffffffffffffffffffffff1673ffffffffffffffffffffffffffffffffffffffff1681526020019081526020016000206002016000604051602001526040518263ffffffff167c01000000000000000000000000000000000000000000000000000000000281526004018082815260200191505060206040518083038186803b151561148457600080fd5b6102c65a03f4151561149557600080fd5b505050604051805190509050919050565b600360003373ffffffffffffffffffffffffffffffffffffffff1673ffffffffffffffffffffffffffffffffffffffff16815260200190815260200160002060000160009054906101000a900460ff16151561150157600080fd5b8073__AddressVotes__________________________63f473765c600360008473ffffffffffffffffffffffffffffffffffffffff1673ffffffffffffffffffffffffffffffffffffffff168152602001908152602001600020600201336000604051602001526040518363ffffffff167c0100000000000000000000000000000000000000000000000000000000028152600401808381526020018273ffffffffffffffffffffffffffffffffffffffff1673ffffffffffffffffffffffffffffffffffffffff1681526020019250505060206040518083038186803b15156115ea57600080fd5b6102c65a03f415156115fb57600080fd5b5050506040518051905015151561161157600080fd5b601e60028054905010151561162557600080fd5b61162e82611f5f565b73__AddressVotes__________________________630e420ae3600360008573ffffffffffffffffffffffffffffffffffffffff1673ffffffffffffffffffffffffffffffffffffffff168152602001908152602001600020600201336000604051602001526040518363ffffffff167c0100000000000000000000000000000000000000000000000000000000028152600401808381526020018273ffffffffffffffffffffffffffffffffffffffff1673ffffffffffffffffffffffffffffffffffffffff1681526020019250505060206040518083038186803b151561171657600080fd5b6102c65a03f4151561172757600080fd5b5050506040518051905050600360003373ffffffffffffffffffffffffffffffffffffffff1673ffffffffffffffffffffffffffffffffffffffff16815260200190815260200160002060040180548060010182816117869190612604565b9160005260206000209001600084909190916101000a81548173ffffffffffffffffffffffffffffffffffffffff021916908373ffffffffffffffffffffffffffffffffffffffff160217905550506117de82610c96565b600115158273ffffffffffffffffffffffffffffffffffffffff163373ffffffffffffffffffffffffffffffffffffffff167f60a1c3e732289b52ec44f82efb957034706a3947c722c2eb154d6f39d89f69ce60405160405180910390a45050565b80600061184d3383611344565b11156119dd576000600360008473ffffffffffffffffffffffffffffffffffffffff1673ffffffffffffffffffffffffffffffffffffffff16815260200190815260200160002060050160003373ffffffffffffffffffffffffffffffffffffffff1673ffffffffffffffffffffffffffffffffffffffff1681526020019081526020016000208190555073__AddressVotes__________________________63dab5be0b600360008573ffffffffffffffffffffffffffffffffffffffff1673ffffffffffffffffffffffffffffffffffffffff168152602001908152602001600020600601336000604051602001526040518363ffffffff167c0100000000000000000000000000000000000000000000000000000000028152600401808381526020018273ffffffffffffffffffffffffffffffffffffffff1673ffffffffffffffffffffffffffffffffffffffff1681526020019250505060206040518083038186803b15156119c057600080fd5b6102c65a03f415156119d157600080fd5b50505060405180519050505b5050565b600360003373ffffffffffffffffffffffffffffffffffffffff1673ffffffffffffffffffffffffffffffffffffffff16815260200190815260200160002060000160009054906101000a900460ff161515611a3c57600080fd5b81601481014311151515611a4f57600080fd5b611a593385611c03565b600115158473ffffffffffffffffffffffffffffffffffffffff163373ffffffffffffffffffffffffffffffffffffffff167f32c78b6140c46745a46e88cd883707d70dbd2f06d13dd76fe5f499c01290da4f60405160405180910390a450505050565b61546081565b601481565b600360003373ffffffffffffffffffffffffffffffffffffffff1673ffffffffffffffffffffffffffffffffffffffff16815260200190815260200160002060000160009054906101000a900460ff161515611b2357600080fd5b81600360008273ffffffffffffffffffffffffffffffffffffffff1673ffffffffffffffffffffffffffffffffffffffff16815260200190815260200160002060000160009054906101000a900460ff1615611bfe5781601481014311151515611b8c57600080fd5b611b958461215e565b611b9e846121fa565b600015158473ffffffffffffffffffffffffffffffffffffffff163373ffffffffffffffffffffffffffffffffffffffff167f32c78b6140c46745a46e88cd883707d70dbd2f06d13dd76fe5f499c01290da4f60405160405180910390a4505b505050565b73__AddressVotes__________________________63dab5be0b600360008473ffffffffffffffffffffffffffffffffffffffff1673ffffffffffffffffffffffffffffffffffffffff168152602001908152602001600020600201846000604051602001526040518363ffffffff167c0100000000000000000000000000000000000000000000000000000000028152600401808381526020018273ffffffffffffffffffffffffffffffffffffffff1673ffffffffffffffffffffffffffffffffffffffff1681526020019250505060206040518083038186803b1515611ceb57600080fd5b6102c65a03f41515611cfc57600080fd5b505050604051805190501515611d1157600080fd5b600015158173ffffffffffffffffffffffffffffffffffffffff168373ffffffffffffffffffffffffffffffffffffffff167f60a1c3e732289b52ec44f82efb957034706a3947c722c2eb154d6f39d89f69ce60405160405180910390a4611d78816108fe565b5050565b6000809054906101000a900473ffffffffffffffffffffffffffffffffffffffff1673ffffffffffffffffffffffffffffffffffffffff1663a0285c01600143034060026040518363ffffffff167c0100000000000000000000000000000000000000000000000000000000028152600401808360001916600019168152602001806020018281038252838181548152602001915080548015611e7457602002820191906000526020600020905b8160009054906101000a900473ffffffffffffffffffffffffffffffffffffffff1673ffffffffffffffffffffffffffffffffffffffff1681526020019060010190808311611e2a575b50509350505050600060405180830381600087803b1515611e9457600080fd5b6102c65a03f11515611ea557600080fd5b5050506001430340600019167f55252fa6eee4741b4e24a74a70e9c11fd2c2281df8d6ea13126ff845f7825c89600260405180806020018281038252838181548152602001915080548015611f4f57602002820191906000526020600020905b8160009054906101000a900473ffffffffffffffffffffffffffffffffffffffff1673ffffffffffffffffffffffffffffffffffffffff1681526020019060010190808311611f05575b50509250505060405180910390a2565b80600073__AddressVotes__________________________63cb6a023f600360008573ffffffffffffffffffffffffffffffffffffffff1673ffffffffffffffffffffffffffffffffffffffff1681526020019081526020016000206002016000604051602001526040518263ffffffff167c01000000000000000000000000000000000000000000000000000000000281526004018082815260200191505060206040518083038186803b151561201657600080fd5b6102c65a03f4151561202757600080fd5b50505060405180519050141561215a5760a060405190810160405280600015158152602001600280549050815260200160206040519081016040528060008152508152602001600060405180591061207c5750595b908082528060200260200182016040525081526020016020604051908101604052806000815250815250600360008473ffffffffffffffffffffffffffffffffffffffff1673ffffffffffffffffffffffffffffffffffffffff16815260200190815260200160002060008201518160000160006101000a81548160ff0219169083151502179055506020820151816001015560408201518160020160008201518160000155505060608201518160040190805190602001906121409291906124db565b506080820151816006016000820151816000015550509050505b5050565b80600061216b3383611344565b14156121f65742600360008473ffffffffffffffffffffffffffffffffffffffff1673ffffffffffffffffffffffffffffffffffffffff16815260200190815260200160002060050160003373ffffffffffffffffffffffffffffffffffffffff1673ffffffffffffffffffffffffffffffffffffffff168152602001908152602001600020819055505b5050565b80615460426122093384611344565b03111561231e5773__AddressVotes__________________________630e420ae3600360008573ffffffffffffffffffffffffffffffffffffffff1673ffffffffffffffffffffffffffffffffffffffff168152602001908152602001600020600601336000604051602001526040518363ffffffff167c0100000000000000000000000000000000000000000000000000000000028152600401808381526020018273ffffffffffffffffffffffffffffffffffffffff1673ffffffffffffffffffffffffffffffffffffffff1681526020019250505060206040518083038186803b15156122f857600080fd5b6102c65a03f4151561230957600080fd5b505050604051805190505061231d82612322565b5b5050565b806002808054905081151561233357fe5b0461233d82610fbc565b11156124d7576000600360008473ffffffffffffffffffffffffffffffffffffffff1673ffffffffffffffffffffffffffffffffffffffff16815260200190815260200160002060050160003373ffffffffffffffffffffffffffffffffffffffff1673ffffffffffffffffffffffffffffffffffffffff1681526020019081526020016000208190555073__AddressVotes__________________________63dab5be0b600360008573ffffffffffffffffffffffffffffffffffffffff1673ffffffffffffffffffffffffffffffffffffffff168152602001908152602001600020600601336000604051602001526040518363ffffffff167c0100000000000000000000000000000000000000000000000000000000028152600401808381526020018273ffffffffffffffffffffffffffffffffffffffff1673ffffffffffffffffffffffffffffffffffffffff1681526020019250505060206040518083038186803b15156124b057600080fd5b6102c65a03f415156124c157600080fd5b50505060405180519050506124d63383611c03565b5b5050565b828054828255906000526020600020908101928215612554579160200282015b828111156125535782518260006101000a81548173ffffffffffffffffffffffffffffffffffffffff021916908373ffffffffffffffffffffffffffffffffffffffff160217905550916020019190600101906124fb565b5b5090506125619190612644565b5090565b8280548282559060005260206000209081019282156125a65760005260206000209182015b828111156125a557825482559160010191906001019061258a565b5b5090506125b39190612644565b5090565b8154818355818115116125de578183600052602060002091820191016125dd9190612687565b5b505050565b50805460008255906000526020600020908101906126019190612687565b50565b81548183558181151161262b5781836000526020600020918201910161262a9190612687565b5b505050565b602060405190810160405280600081525090565b61268491905b8082111561268057600081816101000a81549073ffffffffffffffffffffffffffffffffffffffff02191690555060010161264a565b5090565b90565b6126a991905b808211156126a557600081600090555060010161268d565b5090565b905600a165627a7a7230582041cfb165948793ac161b7646b3368f92884021fdcf91a8cb73576ce3fa100f640029",
  "source": "//! Copyright 2017 Peter Czaban, Parity Technologies Ltd.\n//!\n//! Licensed under the Apache License, Version 2.0 (the \"License\");\n//! you may not use this file except in compliance with the License.\n//! You may obtain a copy of the License at\n//!\n//!     http://www.apache.org/licenses/LICENSE-2.0\n//!\n//! Unless required by applicable law or agreed to in writing, software\n//! distributed under the License is distributed on an \"AS IS\" BASIS,\n//! WITHOUT WARRANTIES OR CONDITIONS OF ANY KIND, either express or implied.\n//! See the License for the specific language governing permissions and\n//! limitations under the License.\n\npragma solidity ^0.4.15;\n\nimport \"./InnerMajoritySet.sol\";\nimport \"./libraries/AddressVotes.sol\";\n\ncontract Kovan is InnerMajoritySet {\n\t// Used to lower the constructor cost.\n\tbool private initialized;\n\n\tmodifier uninitialized() {\n\t\trequire(!initialized);\n\t\t_;\n\t}\n\n\t// Each validator is initially supported by all others.\n\tfunction Kovan() public {\n\t\tpendingList = [\n\t\t\t// Etherscan\n\t\t\t0x00D6Cc1BA9cf89BD2e58009741f4F7325BAdc0ED,\n\t\t\t// Attores\n\t\t\t0x00427FEaE2419C15b89D1C21af10D1b6650A4d3D,\n\t\t\t// TenX (OneBit)\n\t\t\t0x4Ed9B08e6354C70fE6F8CB0411b0d3246b424d6c,\n\t\t\t// Melonport\n\t\t\t0x0020ee4Be0e2027d76603cB751eE069519bA81A1,\n\t\t\t// Parity\n\t\t\t0x0010f94b296A852aAac52EA6c5Ac72e03afD032D,\n\t\t\t// DigixGlobal\n\t\t\t0x007733a1FE69CF3f2CF989F81C7b4cAc1693387A,\n\t\t\t// Maker\n\t\t\t0x00E6d2b931F55a3f1701c7389d592a7778897879,\n\t\t\t// Aurel\n\t\t\t0x00e4a10650e5a6D6001C38ff8E64F97016a1645c,\n\t\t\t// GridSingularity\n\t\t\t0x00A0A24b9f0E5EC7Aa4c7389b8302fd0123194dE\n\t\t];\n\n\t\tinitialSupport.count = pendingList.length;\n\t\tfor (uint i = 0; i < pendingList.length; i++) {\n\t\t\taddress supporter = pendingList[i];\n\t\t\tinitialSupport.inserted[supporter] = true;\n\t\t}\n\t}\n\n\t// Has to be called once before any other methods are called.\n\tfunction initializeValidators() public uninitialized {\n\t\tfor (uint j = 0; j < pendingList.length; j++) {\n\t\t\taddress validator = pendingList[j];\n\t\t\tvalidatorsStatus[validator] = ValidatorStatus({\n\t\t\t\tisValidator: true,\n\t\t\t\tindex: j,\n\t\t\t\tsupport: initialSupport,\n\t\t\t\tsupported: pendingList,\n\t\t\t\tbenignMisbehaviour: AddressVotes.Data({ count: 0 })\n\t\t\t});\n\t\t}\n\t\tinitialized = true;\n\t\tvalidatorsList = pendingList;\n\t}\n}\n",
  "sourcePath": "/home/yongwen/work/dlt/private-network/contracts/validator/contracts/Kovan.sol",
  "compiler": {
    "name": "solc",
    "version": "0.4.18+commit.9cf6e910.Emscripten.clang"
  },
  "schemaVersion": "1.0.1",
  "updatedAt": "2018-01-22T02:50:11.284Z"
}