{
  "contractName": "MajoritySet",
  "abi": [
    {
      "constant": true,
      "inputs": [
        {
          "name": "validator",
          "type": "address"
        }
      ],
      "name": "highSupport",
      "outputs": [
        {
          "name": "",
          "type": "bool"
        }
      ],
      "payable": false,
      "stateMutability": "view",
      "type": "function"
    },
    {
      "constant": true,
      "inputs": [
        {
          "name": "",
          "type": "uint256"
        }
      ],
      "name": "validatorsList",
      "outputs": [
        {
          "name": "",
          "type": "address"
        }
      ],
      "payable": false,
      "stateMutability": "view",
      "type": "function"
    },
    {
      "constant": false,
      "inputs": [
        {
          "name": "validator",
          "type": "address"
        }
      ],
      "name": "removeValidator",
      "outputs": [],
      "payable": false,
      "stateMutability": "nonpayable",
      "type": "function"
    },
    {
      "constant": false,
      "inputs": [
        {
          "name": "validator",
          "type": "address"
        }
      ],
      "name": "addValidator",
      "outputs": [],
      "payable": false,
      "stateMutability": "nonpayable",
      "type": "function"
    },
    {
      "constant": true,
      "inputs": [
        {
          "name": "validator",
          "type": "address"
        }
      ],
      "name": "getRepeatedBenign",
      "outputs": [
        {
          "name": "",
          "type": "uint256"
        }
      ],
      "payable": false,
      "stateMutability": "view",
      "type": "function"
    },
    {
      "constant": true,
      "inputs": [
        {
          "name": "validator",
          "type": "address"
        }
      ],
      "name": "getSupported",
      "outputs": [
        {
          "name": "",
          "type": "address[]"
        }
      ],
      "payable": false,
      "stateMutability": "view",
      "type": "function"
    },
    {
      "constant": true,
      "inputs": [],
      "name": "MAX_VALIDATORS",
      "outputs": [
        {
          "name": "",
          "type": "uint256"
        }
      ],
      "payable": false,
      "stateMutability": "view",
      "type": "function"
    },
    {
      "constant": false,
      "inputs": [],
      "name": "finalizeChange",
      "outputs": [],
      "payable": false,
      "stateMutability": "nonpayable",
      "type": "function"
    },
    {
      "constant": true,
      "inputs": [],
      "name": "getValidators",
      "outputs": [
        {
          "name": "",
          "type": "address[]"
        }
      ],
      "payable": false,
      "stateMutability": "view",
      "type": "function"
    },
    {
      "constant": true,
      "inputs": [
        {
          "name": "reporter",
          "type": "address"
        },
        {
          "name": "validator",
          "type": "address"
        }
      ],
      "name": "firstBenignReported",
      "outputs": [
        {
          "name": "",
          "type": "uint256"
        }
      ],
      "payable": false,
      "stateMutability": "view",
      "type": "function"
    },
    {
      "constant": true,
      "inputs": [
        {
          "name": "validator",
          "type": "address"
        }
      ],
      "name": "getSupport",
      "outputs": [
        {
          "name": "",
          "type": "uint256"
        }
      ],
      "payable": false,
      "stateMutability": "view",
      "type": "function"
    },
    {
      "constant": false,
      "inputs": [
        {
          "name": "validator",
          "type": "address"
        }
      ],
      "name": "addSupport",
      "outputs": [],
      "payable": false,
      "stateMutability": "nonpayable",
      "type": "function"
    },
    {
      "constant": false,
      "inputs": [
        {
          "name": "validator",
          "type": "address"
        }
      ],
      "name": "absolveFirstBenign",
      "outputs": [],
      "payable": false,
      "stateMutability": "nonpayable",
      "type": "function"
    },
    {
      "constant": false,
      "inputs": [
        {
          "name": "validator",
          "type": "address"
        },
        {
          "name": "blockNumber",
          "type": "uint256"
        },
        {
          "name": "proof",
          "type": "bytes"
        }
      ],
      "name": "reportMalicious",
      "outputs": [],
      "payable": false,
      "stateMutability": "nonpayable",
      "type": "function"
    },
    {
      "constant": true,
      "inputs": [],
      "name": "MAX_INACTIVITY",
      "outputs": [
        {
          "name": "",
          "type": "uint256"
        }
      ],
      "payable": false,
      "stateMutability": "view",
      "type": "function"
    },
    {
      "constant": true,
      "inputs": [],
      "name": "RECENT_BLOCKS",
      "outputs": [
        {
          "name": "",
          "type": "uint256"
        }
      ],
      "payable": false,
      "stateMutability": "view",
      "type": "function"
    },
    {
      "constant": false,
      "inputs": [
        {
          "name": "validator",
          "type": "address"
        },
        {
          "name": "blockNumber",
          "type": "uint256"
        }
      ],
      "name": "reportBenign",
      "outputs": [],
      "payable": false,
      "stateMutability": "nonpayable",
      "type": "function"
    },
    {
      "inputs": [],
      "payable": false,
      "stateMutability": "nonpayable",
      "type": "constructor"
    },
    {
      "anonymous": false,
      "inputs": [
        {
          "indexed": true,
          "name": "reporter",
          "type": "address"
        },
        {
          "indexed": true,
          "name": "reported",
          "type": "address"
        },
        {
          "indexed": true,
          "name": "malicious",
          "type": "bool"
        }
      ],
      "name": "Report",
      "type": "event"
    },
    {
      "anonymous": false,
      "inputs": [
        {
          "indexed": true,
          "name": "supporter",
          "type": "address"
        },
        {
          "indexed": true,
          "name": "supported",
          "type": "address"
        },
        {
          "indexed": true,
          "name": "added",
          "type": "bool"
        }
      ],
      "name": "Support",
      "type": "event"
    },
    {
      "anonymous": false,
      "inputs": [
        {
          "indexed": false,
          "name": "current_set",
          "type": "address[]"
        }
      ],
      "name": "ChangeFinalized",
      "type": "event"
    },
    {
      "anonymous": false,
      "inputs": [
        {
          "indexed": true,
          "name": "_parent_hash",
          "type": "bytes32"
        },
        {
          "indexed": false,
          "name": "_new_set",
          "type": "address[]"
        }
      ],
      "name": "InitiateChange",
      "type": "event"
    }
  ],
  "bytecode": "0x606060405234156200001057600080fd5b600080600080600180548060010182816200002c919062000365565b9160005260206000209001600073f5777f8133aae2734396ab1d43ca54ad11bfb737909190916101000a81548173ffffffffffffffffffffffffffffffffffffffff021916908373ffffffffffffffffffffffffffffffffffffffff16021790555050600180549050600460000181905550600093505b6001805490508410156200015857600184815481101515620000c157fe5b906000526020600020900160009054906101000a900473ffffffffffffffffffffffffffffffffffffffff1692506001600460010160008573ffffffffffffffffffffffffffffffffffffffff1673ffffffffffffffffffffffffffffffffffffffff16815260200190815260200160002060006101000a81548160ff0219169083151502179055508380600101945050620000a3565b600091505b60018054905082101562000346576001828154811015156200017b57fe5b906000526020600020900160009054906101000a900473ffffffffffffffffffffffffffffffffffffffff16905060a060405190810160405280600115158152602001838152602001600460206040519081016040529081600082015481525050815260200160018054806020026020016040519081016040528092919081815260200182805480156200026557602002820191906000526020600020905b8160009054906101000a900473ffffffffffffffffffffffffffffffffffffffff1673ffffffffffffffffffffffffffffffffffffffff16815260200190600101908083116200021a575b505050505081526020016020604051908101604052806000815250815250600360008373ffffffffffffffffffffffffffffffffffffffff1673ffffffffffffffffffffffffffffffffffffffff16815260200190815260200160002060008201518160000160006101000a81548160ff0219169083151502179055506020820151816001015560408201518160020160008201518160000155505060608201518160040190805190602001906200031f92919062000394565b5060808201518160060160008201518160000155505090505081806001019250506200015d565b600160009080546200035a92919062000423565b5050505050620004e8565b8154818355818115116200038f578183600052602060002091820191016200038e91906200047a565b5b505050565b82805482825590600052602060002090810192821562000410579160200282015b828111156200040f5782518260006101000a81548173ffffffffffffffffffffffffffffffffffffffff021916908373ffffffffffffffffffffffffffffffffffffffff16021790555091602001919060010190620003b5565b5b5090506200041f9190620004a2565b5090565b828054828255906000526020600020908101928215620004675760005260206000209182015b828111156200046657825482559160010191906001019062000449565b5b509050620004769190620004a2565b5090565b6200049f91905b808211156200049b57600081600090555060010162000481565b5090565b90565b620004e591905b80821115620004e157600081816101000a81549073ffffffffffffffffffffffffffffffffffffffff021916905550600101620004a9565b5090565b90565b61232d80620004f86000396000f3006060604052600436106100f1576000357c0100000000000000000000000000000000000000000000000000000000900463ffffffff16806312146222146100f6578063170f92911461014757806340a141ff146101aa5780634d238c8e146101e35780635798a9b61461021c578063695764c814610269578063714897df146102f75780637528621114610320578063b7ab4db514610335578063b7fa38501461039f578063b88c91471461040b578063bc201a9d14610458578063c06998d614610491578063c476dd40146104ca578063d386807c1461054f578063d4a3bde114610578578063d69f13bb146105a1575b600080fd5b341561010157600080fd5b61012d600480803573ffffffffffffffffffffffffffffffffffffffff169060200190919050506105e3565b604051808215151515815260200191505060405180910390f35b341561015257600080fd5b6101686004808035906020019091905050610608565b604051808273ffffffffffffffffffffffffffffffffffffffff1673ffffffffffffffffffffffffffffffffffffffff16815260200191505060405180910390f35b34156101b557600080fd5b6101e1600480803573ffffffffffffffffffffffffffffffffffffffff16906020019091905050610647565b005b34156101ee57600080fd5b61021a600480803573ffffffffffffffffffffffffffffffffffffffff169060200190919050506109de565b005b341561022757600080fd5b610253600480803573ffffffffffffffffffffffffffffffffffffffff16906020019091905050610d04565b6040518082815260200191505060405180910390f35b341561027457600080fd5b6102a0600480803573ffffffffffffffffffffffffffffffffffffffff16906020019091905050610ddc565b6040518080602001828103825283818151815260200191508051906020019060200280838360005b838110156102e35780820151818401526020810190506102c8565b505050509050019250505060405180910390f35b341561030257600080fd5b61030a610eb2565b6040518082815260200191505060405180910390f35b341561032b57600080fd5b610333610eb7565b005b341561034057600080fd5b610348610ffa565b6040518080602001828103825283818151815260200191508051906020019060200280838360005b8381101561038b578082015181840152602081019050610370565b505050509050019250505060405180910390f35b34156103aa57600080fd5b6103f5600480803573ffffffffffffffffffffffffffffffffffffffff1690602001909190803573ffffffffffffffffffffffffffffffffffffffff1690602001909190505061108e565b6040518082815260200191505060405180910390f35b341561041657600080fd5b610442600480803573ffffffffffffffffffffffffffffffffffffffff16906020019091905050611118565b6040518082815260200191505060405180910390f35b341561046357600080fd5b61048f600480803573ffffffffffffffffffffffffffffffffffffffff169060200190919050506111f0565b005b341561049c57600080fd5b6104c8600480803573ffffffffffffffffffffffffffffffffffffffff1690602001909190505061158a565b005b34156104d557600080fd5b61054d600480803573ffffffffffffffffffffffffffffffffffffffff1690602001909190803590602001909190803590602001908201803590602001908080601f0160208091040260200160405190810160405280939291908181526020018383808284378201915050505050509190505061172b565b005b341561055a57600080fd5b610562611807565b6040518082815260200191505060405180910390f35b341561058357600080fd5b61058b61180d565b6040518082815260200191505060405180910390f35b34156105ac57600080fd5b6105e1600480803573ffffffffffffffffffffffffffffffffffffffff16906020019091908035906020019091905050611812565b005b600060026001805490508115156105f657fe5b0461060083611118565b119050919050565b60008181548110151561061757fe5b90600052602060002090016000915054906101000a900473ffffffffffffffffffffffffffffffffffffffff1681565b600080600080600085600360008273ffffffffffffffffffffffffffffffffffffffff1673ffffffffffffffffffffffffffffffffffffffff16815260200190815260200160002060000160009054906101000a900460ff16156109d557866106af816105e3565b15156109d357600360008973ffffffffffffffffffffffffffffffffffffffff1673ffffffffffffffffffffffffffffffffffffffff1681526020019081526020016000206001015496506001808054905003955060018681548110151561071357fe5b906000526020600020900160009054906101000a900473ffffffffffffffffffffffffffffffffffffffff1694508460018881548110151561075157fe5b906000526020600020900160006101000a81548173ffffffffffffffffffffffffffffffffffffffff021916908373ffffffffffffffffffffffffffffffffffffffff16021790555086600360008773ffffffffffffffffffffffffffffffffffffffff1673ffffffffffffffffffffffffffffffffffffffff168152602001908152602001600020600101819055506001868154811015156107f057fe5b906000526020600020900160006101000a81549073ffffffffffffffffffffffffffffffffffffffff021916905560018054809190600190036108339190612130565b506000600360008a73ffffffffffffffffffffffffffffffffffffffff1673ffffffffffffffffffffffffffffffffffffffff168152602001908152602001600020600101819055506000600360008a73ffffffffffffffffffffffffffffffffffffffff1673ffffffffffffffffffffffffffffffffffffffff16815260200190815260200160002060000160006101000a81548160ff021916908315150217905550600360008973ffffffffffffffffffffffffffffffffffffffff1673ffffffffffffffffffffffffffffffffffffffff1681526020019081526020016000206004019350600092505b838054905083101561097c5761096f88858581548110151561093e57fe5b906000526020600020900160009054906101000a900473ffffffffffffffffffffffffffffffffffffffff1661194d565b8280600101935050610920565b600360008973ffffffffffffffffffffffffffffffffffffffff1673ffffffffffffffffffffffffffffffffffffffff16815260200190815260200160002060040160006109ca919061215c565b6109d2611ac6565b5b505b50505050505050565b80600360008273ffffffffffffffffffffffffffffffffffffffff1673ffffffffffffffffffffffffffffffffffffffff16815260200190815260200160002060000160009054906101000a900460ff161515610d005781610a3f816105e3565b15610cfe57600180549050600360008573ffffffffffffffffffffffffffffffffffffffff1673ffffffffffffffffffffffffffffffffffffffff1681526020019081526020016000206001018190555060018054806001018281610aa4919061217d565b9160005260206000209001600085909190916101000a81548173ffffffffffffffffffffffffffffffffffffffff021916908373ffffffffffffffffffffffffffffffffffffffff160217905550506001600360008573ffffffffffffffffffffffffffffffffffffffff1673ffffffffffffffffffffffffffffffffffffffff16815260200190815260200160002060000160006101000a81548160ff02191690831515021790555073__AddressVotes__________________________630e420ae3600360008673ffffffffffffffffffffffffffffffffffffffff1673ffffffffffffffffffffffffffffffffffffffff168152602001908152602001600020600201856000604051602001526040518363ffffffff167c0100000000000000000000000000000000000000000000000000000000028152600401808381526020018273ffffffffffffffffffffffffffffffffffffffff1673ffffffffffffffffffffffffffffffffffffffff1681526020019250505060206040518083038186803b1515610c3657600080fd5b6102c65a03f41515610c4757600080fd5b5050506040518051905050600360008473ffffffffffffffffffffffffffffffffffffffff1673ffffffffffffffffffffffffffffffffffffffff1681526020019081526020016000206004018054806001018281610ca6919061217d565b9160005260206000209001600085909190916101000a81548173ffffffffffffffffffffffffffffffffffffffff021916908373ffffffffffffffffffffffffffffffffffffffff16021790555050610cfd611ac6565b5b505b5050565b600073__AddressVotes__________________________63cb6a023f600360008573ffffffffffffffffffffffffffffffffffffffff1673ffffffffffffffffffffffffffffffffffffffff1681526020019081526020016000206006016000604051602001526040518263ffffffff167c01000000000000000000000000000000000000000000000000000000000281526004018082815260200191505060206040518083038186803b1515610dba57600080fd5b6102c65a03f41515610dcb57600080fd5b505050604051805190509050919050565b610de46121a9565b600360008373ffffffffffffffffffffffffffffffffffffffff1673ffffffffffffffffffffffffffffffffffffffff168152602001908152602001600020600401805480602002602001604051908101604052809291908181526020018280548015610ea657602002820191906000526020600020905b8160009054906101000a900473ffffffffffffffffffffffffffffffffffffffff1673ffffffffffffffffffffffffffffffffffffffff1681526020019060010190808311610e5c575b50505050509050919050565b601e81565b73fffffffffffffffffffffffffffffffffffffffe73ffffffffffffffffffffffffffffffffffffffff163373ffffffffffffffffffffffffffffffffffffffff16148015610f135750600260009054906101000a900460ff16155b1515610f1e57600080fd5b60016000908054610f309291906121bd565b506001600260006101000a81548160ff0219169083151502179055507f8564cd629b15f47dc310d45bcbfc9bcf5420b0d51bf0659a16c67f91d2763253600060405180806020018281038252838181548152602001915080548015610fea57602002820191906000526020600020905b8160009054906101000a900473ffffffffffffffffffffffffffffffffffffffff1673ffffffffffffffffffffffffffffffffffffffff1681526020019060010190808311610fa0575b50509250505060405180910390a1565b6110026121a9565b600080548060200260200160405190810160405280929190818152602001828054801561108457602002820191906000526020600020905b8160009054906101000a900473ffffffffffffffffffffffffffffffffffffffff1673ffffffffffffffffffffffffffffffffffffffff168152602001906001019080831161103a575b5050505050905090565b6000600360008373ffffffffffffffffffffffffffffffffffffffff1673ffffffffffffffffffffffffffffffffffffffff16815260200190815260200160002060050160008473ffffffffffffffffffffffffffffffffffffffff1673ffffffffffffffffffffffffffffffffffffffff16815260200190815260200160002054905092915050565b600073__AddressVotes__________________________63cb6a023f600360008573ffffffffffffffffffffffffffffffffffffffff1673ffffffffffffffffffffffffffffffffffffffff1681526020019081526020016000206002016000604051602001526040518263ffffffff167c01000000000000000000000000000000000000000000000000000000000281526004018082815260200191505060206040518083038186803b15156111ce57600080fd5b6102c65a03f415156111df57600080fd5b505050604051805190509050919050565b600360003373ffffffffffffffffffffffffffffffffffffffff1673ffffffffffffffffffffffffffffffffffffffff16815260200190815260200160002060000160009054906101000a900460ff16151561124b57600080fd5b8073__AddressVotes__________________________63f473765c600360008473ffffffffffffffffffffffffffffffffffffffff1673ffffffffffffffffffffffffffffffffffffffff168152602001908152602001600020600201336000604051602001526040518363ffffffff167c0100000000000000000000000000000000000000000000000000000000028152600401808381526020018273ffffffffffffffffffffffffffffffffffffffff1673ffffffffffffffffffffffffffffffffffffffff1681526020019250505060206040518083038186803b151561133457600080fd5b6102c65a03f4151561134557600080fd5b5050506040518051905015151561135b57600080fd5b601e60018054905010151561136f57600080fd5b61137882611bb3565b73__AddressVotes__________________________630e420ae3600360008573ffffffffffffffffffffffffffffffffffffffff1673ffffffffffffffffffffffffffffffffffffffff168152602001908152602001600020600201336000604051602001526040518363ffffffff167c0100000000000000000000000000000000000000000000000000000000028152600401808381526020018273ffffffffffffffffffffffffffffffffffffffff1673ffffffffffffffffffffffffffffffffffffffff1681526020019250505060206040518083038186803b151561146057600080fd5b6102c65a03f4151561147157600080fd5b5050506040518051905050600360003373ffffffffffffffffffffffffffffffffffffffff1673ffffffffffffffffffffffffffffffffffffffff16815260200190815260200160002060040180548060010182816114d0919061217d565b9160005260206000209001600084909190916101000a81548173ffffffffffffffffffffffffffffffffffffffff021916908373ffffffffffffffffffffffffffffffffffffffff16021790555050611528826109de565b600115158273ffffffffffffffffffffffffffffffffffffffff163373ffffffffffffffffffffffffffffffffffffffff167f60a1c3e732289b52ec44f82efb957034706a3947c722c2eb154d6f39d89f69ce60405160405180910390a45050565b806000611597338361108e565b1115611727576000600360008473ffffffffffffffffffffffffffffffffffffffff1673ffffffffffffffffffffffffffffffffffffffff16815260200190815260200160002060050160003373ffffffffffffffffffffffffffffffffffffffff1673ffffffffffffffffffffffffffffffffffffffff1681526020019081526020016000208190555073__AddressVotes__________________________63dab5be0b600360008573ffffffffffffffffffffffffffffffffffffffff1673ffffffffffffffffffffffffffffffffffffffff168152602001908152602001600020600601336000604051602001526040518363ffffffff167c0100000000000000000000000000000000000000000000000000000000028152600401808381526020018273ffffffffffffffffffffffffffffffffffffffff1673ffffffffffffffffffffffffffffffffffffffff1681526020019250505060206040518083038186803b151561170a57600080fd5b6102c65a03f4151561171b57600080fd5b50505060405180519050505b5050565b600360003373ffffffffffffffffffffffffffffffffffffffff1673ffffffffffffffffffffffffffffffffffffffff16815260200190815260200160002060000160009054906101000a900460ff16151561178657600080fd5b8160148101431115151561179957600080fd5b6117a3338561194d565b600115158473ffffffffffffffffffffffffffffffffffffffff163373ffffffffffffffffffffffffffffffffffffffff167f32c78b6140c46745a46e88cd883707d70dbd2f06d13dd76fe5f499c01290da4f60405160405180910390a450505050565b61546081565b601481565b600360003373ffffffffffffffffffffffffffffffffffffffff1673ffffffffffffffffffffffffffffffffffffffff16815260200190815260200160002060000160009054906101000a900460ff16151561186d57600080fd5b81600360008273ffffffffffffffffffffffffffffffffffffffff1673ffffffffffffffffffffffffffffffffffffffff16815260200190815260200160002060000160009054906101000a900460ff161561194857816014810143111515156118d657600080fd5b6118df84611db2565b6118e884611e4e565b600015158473ffffffffffffffffffffffffffffffffffffffff163373ffffffffffffffffffffffffffffffffffffffff167f32c78b6140c46745a46e88cd883707d70dbd2f06d13dd76fe5f499c01290da4f60405160405180910390a4505b505050565b73__AddressVotes__________________________63dab5be0b600360008473ffffffffffffffffffffffffffffffffffffffff1673ffffffffffffffffffffffffffffffffffffffff168152602001908152602001600020600201846000604051602001526040518363ffffffff167c0100000000000000000000000000000000000000000000000000000000028152600401808381526020018273ffffffffffffffffffffffffffffffffffffffff1673ffffffffffffffffffffffffffffffffffffffff1681526020019250505060206040518083038186803b1515611a3557600080fd5b6102c65a03f41515611a4657600080fd5b505050604051805190501515611a5b57600080fd5b600015158173ffffffffffffffffffffffffffffffffffffffff168373ffffffffffffffffffffffffffffffffffffffff167f60a1c3e732289b52ec44f82efb957034706a3947c722c2eb154d6f39d89f69ce60405160405180910390a4611ac281610647565b5050565b600260009054906101000a900460ff161515611ae157600080fd5b6000600260006101000a81548160ff0219169083151502179055506001430340600019167f55252fa6eee4741b4e24a74a70e9c11fd2c2281df8d6ea13126ff845f7825c89600160405180806020018281038252838181548152602001915080548015611ba357602002820191906000526020600020905b8160009054906101000a900473ffffffffffffffffffffffffffffffffffffffff1673ffffffffffffffffffffffffffffffffffffffff1681526020019060010190808311611b59575b50509250505060405180910390a2565b80600073__AddressVotes__________________________63cb6a023f600360008573ffffffffffffffffffffffffffffffffffffffff1673ffffffffffffffffffffffffffffffffffffffff1681526020019081526020016000206002016000604051602001526040518263ffffffff167c01000000000000000000000000000000000000000000000000000000000281526004018082815260200191505060206040518083038186803b1515611c6a57600080fd5b6102c65a03f41515611c7b57600080fd5b505050604051805190501415611dae5760a0604051908101604052806000151581526020016001805490508152602001602060405190810160405280600081525081526020016000604051805910611cd05750595b908082528060200260200182016040525081526020016020604051908101604052806000815250815250600360008473ffffffffffffffffffffffffffffffffffffffff1673ffffffffffffffffffffffffffffffffffffffff16815260200190815260200160002060008201518160000160006101000a81548160ff021916908315150217905550602082015181600101556040820151816002016000820151816000015550506060820151816004019080519060200190611d9492919061220f565b506080820151816006016000820151816000015550509050505b5050565b806000611dbf338361108e565b1415611e4a5742600360008473ffffffffffffffffffffffffffffffffffffffff1673ffffffffffffffffffffffffffffffffffffffff16815260200190815260200160002060050160003373ffffffffffffffffffffffffffffffffffffffff1673ffffffffffffffffffffffffffffffffffffffff168152602001908152602001600020819055505b5050565b8061546042611e5d338461108e565b031115611f725773__AddressVotes__________________________630e420ae3600360008573ffffffffffffffffffffffffffffffffffffffff1673ffffffffffffffffffffffffffffffffffffffff168152602001908152602001600020600601336000604051602001526040518363ffffffff167c0100000000000000000000000000000000000000000000000000000000028152600401808381526020018273ffffffffffffffffffffffffffffffffffffffff1673ffffffffffffffffffffffffffffffffffffffff1681526020019250505060206040518083038186803b1515611f4c57600080fd5b6102c65a03f41515611f5d57600080fd5b5050506040518051905050611f7182611f76565b5b5050565b806002600180549050811515611f8857fe5b04611f9282610d04565b111561212c576000600360008473ffffffffffffffffffffffffffffffffffffffff1673ffffffffffffffffffffffffffffffffffffffff16815260200190815260200160002060050160003373ffffffffffffffffffffffffffffffffffffffff1673ffffffffffffffffffffffffffffffffffffffff1681526020019081526020016000208190555073__AddressVotes__________________________63dab5be0b600360008573ffffffffffffffffffffffffffffffffffffffff1673ffffffffffffffffffffffffffffffffffffffff168152602001908152602001600020600601336000604051602001526040518363ffffffff167c0100000000000000000000000000000000000000000000000000000000028152600401808381526020018273ffffffffffffffffffffffffffffffffffffffff1673ffffffffffffffffffffffffffffffffffffffff1681526020019250505060206040518083038186803b151561210557600080fd5b6102c65a03f4151561211657600080fd5b505050604051805190505061212b338361194d565b5b5050565b815481835581811511612157578183600052602060002091820191016121569190612299565b5b505050565b508054600082559060005260206000209081019061217a9190612299565b50565b8154818355818115116121a4578183600052602060002091820191016121a39190612299565b5b505050565b602060405190810160405280600081525090565b8280548282559060005260206000209081019282156121fe5760005260206000209182015b828111156121fd5782548255916001019190600101906121e2565b5b50905061220b91906122be565b5090565b828054828255906000526020600020908101928215612288579160200282015b828111156122875782518260006101000a81548173ffffffffffffffffffffffffffffffffffffffff021916908373ffffffffffffffffffffffffffffffffffffffff1602179055509160200191906001019061222f565b5b50905061229591906122be565b5090565b6122bb91905b808211156122b757600081600090555060010161229f565b5090565b90565b6122fe91905b808211156122fa57600081816101000a81549073ffffffffffffffffffffffffffffffffffffffff0219169055506001016122c4565b5090565b905600a165627a7a72305820ddac595083c3e53d0383fa72e870923ca67134a467716b0a92089d46f4893fe80029",
  "source": "//! Copyright 2017 Peter Czaban, Parity Technologies Ltd.\n//!\n//! Licensed under the Apache License, Version 2.0 (the \"License\");\n//! you may not use this file except in compliance with the License.\n//! You may obtain a copy of the License at\n//!\n//!     http://www.apache.org/licenses/LICENSE-2.0\n//!\n//! Unless required by applicable law or agreed to in writing, software\n//! distributed under the License is distributed on an \"AS IS\" BASIS,\n//! WITHOUT WARRANTIES OR CONDITIONS OF ANY KIND, either express or implied.\n//! See the License for the specific language governing permissions and\n//! limitations under the License.\n\npragma solidity ^0.4.15;\n\nimport \"./interfaces/ValidatorSet.sol\";\nimport \"./libraries/AddressVotes.sol\";\n\n// Existing validators can give support to addresses.\n// Support can not be added once MAX_VALIDATORS are present.\n// Once given, support can be removed.\n// Addresses supported by more than half of the existing validators are the validators.\n// Malicious behaviour causes support removal.\n// Benign misbehaviour causes supprt removal if its called again after MAX_INACTIVITY.\n// Benign misbehaviour can be absolved before being called the second time.\n\ncontract MajoritySet is ValidatorSet {\n\t// EVENTS\n\tevent Report(address indexed reporter, address indexed reported, bool indexed malicious);\n\tevent Support(address indexed supporter, address indexed supported, bool indexed added);\n\tevent ChangeFinalized(address[] current_set);\n\n\tstruct ValidatorStatus {\n\t\t// Is this a validator.\n\t\tbool isValidator;\n\t\t// Index in the validatorList.\n\t\tuint index;\n\t\t// Validator addresses which supported the address.\n\t\tAddressVotes.Data support;\n\t\t// Keeps track of the votes given out while the address is a validator.\n\t\taddress[] supported;\n\t\t// Initial benign misbehaviour time tracker.\n\t\tmapping(address => uint) firstBenign;\n\t\t// Repeated benign misbehaviour counter.\n\t\tAddressVotes.Data benignMisbehaviour;\n\t}\n\n\t// System address, used by the block sealer.\n\taddress constant SYSTEM_ADDRESS = 0xffffFFFfFFffffffffffffffFfFFFfffFFFfFFfE;\n\t// Support can not be added once this number of validators is reached.\n\tuint public constant MAX_VALIDATORS = 30;\n\t// Time after which the validators will report a validator as malicious.\n\tuint public constant MAX_INACTIVITY = 6 hours;\n\t// Ignore misbehaviour older than this number of blocks.\n\tuint public constant RECENT_BLOCKS = 20;\n\n// STATE\n\n\t// Current list of addresses entitled to participate in the consensus.\n\taddress[] public validatorsList;\n\t// Pending list of validator addresses.\n\taddress[] pendingList;\n\t// Was the last validator change finalized.\n\tbool finalized;\n\t// Tracker of status for each address.\n\tmapping(address => ValidatorStatus) validatorsStatus;\n\n\t// Used to lower the constructor cost.\n\tAddressVotes.Data initialSupport;\n\n\t// Each validator is initially supported by all others.\n\tfunction MajoritySet() public {\n\t\tpendingList.push(0xF5777f8133aAe2734396ab1d43ca54aD11BFB737);\n\n\t\tinitialSupport.count = pendingList.length;\n\t\tfor (uint i = 0; i < pendingList.length; i++) {\n\t\t\taddress supporter = pendingList[i];\n\t\t\tinitialSupport.inserted[supporter] = true;\n\t\t}\n\n\t\tfor (uint j = 0; j < pendingList.length; j++) {\n\t\t\taddress validator = pendingList[j];\n\t\t\tvalidatorsStatus[validator] = ValidatorStatus({\n\t\t\t\tisValidator: true,\n\t\t\t\tindex: j,\n\t\t\t\tsupport: initialSupport,\n\t\t\t\tsupported: pendingList,\n\t\t\t\tbenignMisbehaviour: AddressVotes.Data({ count: 0 })\n\t\t\t});\n\t\t}\n\t\tvalidatorsList = pendingList;\n\t}\n\n\t// Called on every block to update node validator list.\n\tfunction getValidators() public constant returns (address[]) {\n\t\treturn validatorsList;\n\t}\n\n\t// Log desire to change the current list.\n\tfunction initiateChange() private when_finalized {\n\t\tfinalized = false;\n\t\tInitiateChange(block.blockhash(block.number - 1), pendingList);\n\t}\n\n\tfunction finalizeChange() public only_system_and_not_finalized {\n\t\tvalidatorsList = pendingList;\n\t\tfinalized = true;\n\t\tChangeFinalized(validatorsList);\n\t}\n\n\t// SUPPORT LOOKUP AND MANIPULATION\n\n\t// Find the total support for a given address.\n\tfunction getSupport(address validator) public constant returns (uint) {\n\t\treturn AddressVotes.count(validatorsStatus[validator].support);\n\t}\n\n\tfunction getSupported(address validator) public constant returns (address[]) {\n\t\treturn validatorsStatus[validator].supported;\n\t}\n\n\t// Vote to include a validator.\n\tfunction addSupport(address validator) public only_validator not_voted(validator) free_validator_slots {\n\t\tnewStatus(validator);\n\t\tAddressVotes.insert(validatorsStatus[validator].support, msg.sender);\n\t\tvalidatorsStatus[msg.sender].supported.push(validator);\n\t\taddValidator(validator);\n\t\tSupport(msg.sender, validator, true);\n\t}\n\n\t// Remove support for a validator.\n\tfunction removeSupport(address sender, address validator) private {\n\t\trequire(AddressVotes.remove(validatorsStatus[validator].support, sender));\n\t\tSupport(sender, validator, false);\n\t\t// Remove validator from the list if there is not enough support.\n\t\tremoveValidator(validator);\n\t}\n\n\t// MALICIOUS BEHAVIOUR HANDLING\n\n\t// Called when a validator should be removed.\n\tfunction reportMalicious(address validator, uint blockNumber, bytes proof) public only_validator is_recent(blockNumber) {\n\t\tremoveSupport(msg.sender, validator);\n\t\tReport(msg.sender, validator, true);\n\t}\n\n\t// BENIGN MISBEHAVIOUR HANDLING\n\n\t// Report that a validator has misbehaved in a benign way.\n\tfunction reportBenign(address validator, uint blockNumber) public only_validator is_validator(validator) is_recent(blockNumber) {\n\t\tfirstBenign(validator);\n\t\trepeatedBenign(validator);\n\t\tReport(msg.sender, validator, false);\n\t}\n\n\t// Find the total number of repeated misbehaviour votes.\n\tfunction getRepeatedBenign(address validator) public constant returns (uint) {\n\t\treturn AddressVotes.count(validatorsStatus[validator].benignMisbehaviour);\n\t}\n\n\t// Track the first benign misbehaviour.\n\tfunction firstBenign(address validator) private has_not_benign_misbehaved(validator) {\n\t\tvalidatorsStatus[validator].firstBenign[msg.sender] = now;\n\t}\n\n\t// Report that a validator has been repeatedly misbehaving.\n\tfunction repeatedBenign(address validator) private has_repeatedly_benign_misbehaved(validator) {\n\t\tAddressVotes.insert(validatorsStatus[validator].benignMisbehaviour, msg.sender);\n\t\tconfirmedRepeatedBenign(validator);\n\t}\n\n\t// When enough long term benign misbehaviour votes have been seen, remove support.\n\tfunction confirmedRepeatedBenign(address validator) private agreed_on_repeated_benign(validator) {\n\t\tvalidatorsStatus[validator].firstBenign[msg.sender] = 0;\n\t\tAddressVotes.remove(validatorsStatus[validator].benignMisbehaviour, msg.sender);\n\t\tremoveSupport(msg.sender, validator);\n\t}\n\n\t// Absolve a validator from a benign misbehaviour.\n\tfunction absolveFirstBenign(address validator) public has_benign_misbehaved(validator) {\n\t\tvalidatorsStatus[validator].firstBenign[msg.sender] = 0;\n\t\tAddressVotes.remove(validatorsStatus[validator].benignMisbehaviour, msg.sender);\n\t}\n\n\t// PRIVATE UTILITY FUNCTIONS\n\n\t// Add a status tracker for unknown validator.\n\tfunction newStatus(address validator) private has_no_votes(validator) {\n\t\tvalidatorsStatus[validator] = ValidatorStatus({\n\t\t\tisValidator: false,\n\t\t\tindex: pendingList.length,\n\t\t\tsupport: AddressVotes.Data({ count: 0 }),\n\t\t\tsupported: new address[](0),\n\t\t\tbenignMisbehaviour: AddressVotes.Data({ count: 0 })\n\t\t});\n\t}\n\n\t// ENACTMENT FUNCTIONS (called when support gets out of line with the validator list)\n\n\t// Add the validator if supported by majority.\n\t// Since the number of validators increases it is possible to some fall below the threshold.\n\tfunction addValidator(address validator) public is_not_validator(validator) has_high_support(validator) {\n\t\tvalidatorsStatus[validator].index = pendingList.length;\n\t\tpendingList.push(validator);\n\t\tvalidatorsStatus[validator].isValidator = true;\n\t\t// New validator should support itself.\n\t\tAddressVotes.insert(validatorsStatus[validator].support, validator);\n\t\tvalidatorsStatus[validator].supported.push(validator);\n\t\tinitiateChange();\n\t}\n\n\t// Remove a validator without enough support.\n\t// Can be called to clean low support validators after making the list longer.\n\tfunction removeValidator(address validator) public is_validator(validator) has_low_support(validator) {\n\t\tuint removedIndex = validatorsStatus[validator].index;\n\t\t// Can not remove the last validator.\n\t\tuint lastIndex = pendingList.length-1;\n\t\taddress lastValidator = pendingList[lastIndex];\n\t\t// Override the removed validator with the last one.\n\t\tpendingList[removedIndex] = lastValidator;\n\t\t// Update the index of the last validator.\n\t\tvalidatorsStatus[lastValidator].index = removedIndex;\n\t\tdelete pendingList[lastIndex];\n\t\tpendingList.length--;\n\t\t// Reset validator status.\n\t\tvalidatorsStatus[validator].index = 0;\n\t\tvalidatorsStatus[validator].isValidator = false;\n\t\t// Remove all support given by the removed validator.\n\t\taddress[] storage toRemove = validatorsStatus[validator].supported;\n\t\tfor (uint i = 0; i < toRemove.length; i++) {\n\t\t\t\tremoveSupport(validator, toRemove[i]);\n\t\t}\n\t\tdelete validatorsStatus[validator].supported;\n\t\tinitiateChange();\n\t}\n\n\t// MODIFIERS\n\n\tfunction highSupport(address validator) public constant returns (bool) {\n\t\treturn getSupport(validator) > pendingList.length/2;\n\t}\n\n\tfunction firstBenignReported(address reporter, address validator) public constant returns (uint) {\n\t\treturn validatorsStatus[validator].firstBenign[reporter];\n\t}\n\n\tmodifier has_high_support(address validator) {\n\t\tif (highSupport(validator)) { _; }\n\t}\n\n\tmodifier has_low_support(address validator) {\n\t\tif (!highSupport(validator)) { _; }\n\t}\n\n\tmodifier has_not_benign_misbehaved(address validator) {\n\t\tif (firstBenignReported(msg.sender, validator) == 0) { _; }\n\t}\n\n\tmodifier has_benign_misbehaved(address validator) {\n\t\tif (firstBenignReported(msg.sender, validator) > 0) { _; }\n\t}\n\n\tmodifier has_repeatedly_benign_misbehaved(address validator) {\n\t\tif (firstBenignReported(msg.sender, validator) - now > MAX_INACTIVITY) { _; }\n\t}\n\n\tmodifier agreed_on_repeated_benign(address validator) {\n\t\tif (getRepeatedBenign(validator) > pendingList.length/2) { _; }\n\t}\n\n\tmodifier free_validator_slots() {\n\t\trequire(pendingList.length < MAX_VALIDATORS);\n\t\t_;\n\t}\n\n\tmodifier only_validator() {\n\t\trequire(validatorsStatus[msg.sender].isValidator);\n\t\t_;\n\t}\n\n\tmodifier is_validator(address someone) {\n\t\tif (validatorsStatus[someone].isValidator) { _; }\n\t}\n\n\tmodifier is_not_validator(address someone) {\n\t\tif (!validatorsStatus[someone].isValidator) { _; }\n\t}\n\n\tmodifier not_voted(address validator) {\n\t\trequire(!AddressVotes.contains(validatorsStatus[validator].support, msg.sender));\n\t\t_;\n\t}\n\n\tmodifier has_no_votes(address validator) {\n\t\tif (AddressVotes.count(validatorsStatus[validator].support) == 0) { _; }\n\t}\n\n\tmodifier is_recent(uint blockNumber) {\n\t\trequire(block.number <= blockNumber + RECENT_BLOCKS);\n\t\t_;\n\t}\n\n\tmodifier only_system_and_not_finalized() {\n\t\trequire(msg.sender == SYSTEM_ADDRESS && !finalized);\n\t\t_;\n\t}\n\n\tmodifier when_finalized() {\n\t\trequire(finalized);\n\t\t_;\n\t}\n}\n",
  "sourcePath": "/home/yongwen/work/dlt/private-network/contracts/validator/contracts/MajoritySet.sol",
  "compiler": {
    "name": "solc",
    "version": "0.4.18+commit.9cf6e910.Emscripten.clang"
  },
  "schemaVersion": "1.0.1",
  "updatedAt": "2018-01-22T02:49:35.017Z"
}