{
  "contractName": "OuterSet",
  "abi": [
    {
      "constant": false,
      "inputs": [
        {
          "name": "_new",
          "type": "address"
        }
      ],
      "name": "setOwner",
      "outputs": [],
      "payable": false,
      "stateMutability": "nonpayable",
      "type": "function"
    },
    {
      "constant": false,
      "inputs": [],
      "name": "finalizeChange",
      "outputs": [],
      "payable": false,
      "stateMutability": "nonpayable",
      "type": "function"
    },
    {
      "constant": true,
      "inputs": [],
      "name": "owner",
      "outputs": [
        {
          "name": "",
          "type": "address"
        }
      ],
      "payable": false,
      "stateMutability": "view",
      "type": "function"
    },
    {
      "constant": false,
      "inputs": [
        {
          "name": "_parent_hash",
          "type": "bytes32"
        },
        {
          "name": "_new_set",
          "type": "address[]"
        }
      ],
      "name": "initiateChange",
      "outputs": [],
      "payable": false,
      "stateMutability": "nonpayable",
      "type": "function"
    },
    {
      "constant": true,
      "inputs": [],
      "name": "finalized",
      "outputs": [
        {
          "name": "",
          "type": "bool"
        }
      ],
      "payable": false,
      "stateMutability": "view",
      "type": "function"
    },
    {
      "constant": false,
      "inputs": [
        {
          "name": "_inner",
          "type": "address"
        }
      ],
      "name": "setInner",
      "outputs": [],
      "payable": false,
      "stateMutability": "nonpayable",
      "type": "function"
    },
    {
      "constant": true,
      "inputs": [],
      "name": "getValidators",
      "outputs": [
        {
          "name": "",
          "type": "address[]"
        }
      ],
      "payable": false,
      "stateMutability": "view",
      "type": "function"
    },
    {
      "constant": false,
      "inputs": [
        {
          "name": "validator",
          "type": "address"
        },
        {
          "name": "blockNumber",
          "type": "uint256"
        },
        {
          "name": "proof",
          "type": "bytes"
        }
      ],
      "name": "reportMalicious",
      "outputs": [],
      "payable": false,
      "stateMutability": "nonpayable",
      "type": "function"
    },
    {
      "constant": false,
      "inputs": [
        {
          "name": "validator",
          "type": "address"
        },
        {
          "name": "blockNumber",
          "type": "uint256"
        }
      ],
      "name": "reportBenign",
      "outputs": [],
      "payable": false,
      "stateMutability": "nonpayable",
      "type": "function"
    },
    {
      "constant": true,
      "inputs": [],
      "name": "innerSet",
      "outputs": [
        {
          "name": "",
          "type": "address"
        }
      ],
      "payable": false,
      "stateMutability": "view",
      "type": "function"
    },
    {
      "anonymous": false,
      "inputs": [
        {
          "indexed": false,
          "name": "_new_set",
          "type": "address[]"
        }
      ],
      "name": "FinalizeChange",
      "type": "event"
    },
    {
      "anonymous": false,
      "inputs": [
        {
          "indexed": true,
          "name": "_parent_hash",
          "type": "bytes32"
        },
        {
          "indexed": false,
          "name": "_new_set",
          "type": "address[]"
        }
      ],
      "name": "InitiateChange",
      "type": "event"
    },
    {
      "anonymous": false,
      "inputs": [
        {
          "indexed": true,
          "name": "old",
          "type": "address"
        },
        {
          "indexed": true,
          "name": "current",
          "type": "address"
        }
      ],
      "name": "NewOwner",
      "type": "event"
    }
  ],
  "bytecode": "0x6060604052336000806101000a81548173ffffffffffffffffffffffffffffffffffffffff021916908373ffffffffffffffffffffffffffffffffffffffff160217905550341561004f57600080fd5b610b408061005e6000396000f3006060604052600436106100a4576000357c0100000000000000000000000000000000000000000000000000000000900463ffffffff16806313af4035146100a957806375286211146100e25780638da5cb5b146100f7578063a0285c011461014c578063b3f05b97146101b3578063b7991443146101e0578063b7ab4db514610219578063c476dd4014610283578063d69f13bb14610308578063f4de3b1e1461034a575b600080fd5b34156100b457600080fd5b6100e0600480803573ffffffffffffffffffffffffffffffffffffffff1690602001909190505061039f565b005b34156100ed57600080fd5b6100f56104b8565b005b341561010257600080fd5b61010a610653565b604051808273ffffffffffffffffffffffffffffffffffffffff1673ffffffffffffffffffffffffffffffffffffffff16815260200191505060405180910390f35b341561015757600080fd5b6101b160048080356000191690602001909190803590602001908201803590602001908080602002602001604051908101604052809392919081815260200183836020028082843782019150505050505091905050610678565b005b34156101be57600080fd5b6101c6610788565b604051808215151515815260200191505060405180910390f35b34156101eb57600080fd5b610217600480803573ffffffffffffffffffffffffffffffffffffffff1690602001909190505061079b565b005b341561022457600080fd5b61022c61083a565b6040518080602001828103825283818151815260200191508051906020019060200280838360005b8381101561026f578082015181840152602081019050610254565b505050509050019250505060405180910390f35b341561028e57600080fd5b610306600480803573ffffffffffffffffffffffffffffffffffffffff1690602001909190803590602001909190803590602001908201803590602001908080601f016020809104026020016040519081016040528093929190818152602001838380828437820191505050505050919050506108b4565b005b341561031357600080fd5b610348600480803573ffffffffffffffffffffffffffffffffffffffff169060200190919080359060200190919050506109fe565b005b341561035557600080fd5b61035d610ada565b604051808273ffffffffffffffffffffffffffffffffffffffff1673ffffffffffffffffffffffffffffffffffffffff16815260200191505060405180910390f35b6000809054906101000a900473ffffffffffffffffffffffffffffffffffffffff1673ffffffffffffffffffffffffffffffffffffffff163373ffffffffffffffffffffffffffffffffffffffff161415156103fa57600080fd5b8073ffffffffffffffffffffffffffffffffffffffff166000809054906101000a900473ffffffffffffffffffffffffffffffffffffffff1673ffffffffffffffffffffffffffffffffffffffff167f70aea8d848e8a90fb7661b227dc522eb6395c3dac71b63cb59edd5c9899b236460405160405180910390a3806000806101000a81548173ffffffffffffffffffffffffffffffffffffffff021916908373ffffffffffffffffffffffffffffffffffffffff16021790555050565b73fffffffffffffffffffffffffffffffffffffffe73ffffffffffffffffffffffffffffffffffffffff163373ffffffffffffffffffffffffffffffffffffffff161480156105145750600160149054906101000a900460ff16155b151561051f57600080fd5b60018060146101000a81548160ff021916908315150217905550600160009054906101000a900473ffffffffffffffffffffffffffffffffffffffff1673ffffffffffffffffffffffffffffffffffffffff1663752862116040518163ffffffff167c0100000000000000000000000000000000000000000000000000000000028152600401600060405180830381600087803b15156105be57600080fd5b6102c65a03f115156105cf57600080fd5b5050507fc91c5b6efe36a2b67e6d53af99c9d4b661a8f697a5e9e35dbe31211c78f28fc76105fb61083a565b6040518080602001828103825283818151815260200191508051906020019060200280838360005b8381101561063e578082015181840152602081019050610623565b505050509050019250505060405180910390a1565b6000809054906101000a900473ffffffffffffffffffffffffffffffffffffffff1681565b600160009054906101000a900473ffffffffffffffffffffffffffffffffffffffff1673ffffffffffffffffffffffffffffffffffffffff163373ffffffffffffffffffffffffffffffffffffffff161480156106e15750600160149054906101000a900460ff165b15156106ec57600080fd5b6000600160146101000a81548160ff02191690831515021790555081600019167f55252fa6eee4741b4e24a74a70e9c11fd2c2281df8d6ea13126ff845f7825c89826040518080602001828103825283818151815260200191508051906020019060200280838360005b83811015610771578082015181840152602081019050610756565b505050509050019250505060405180910390a25050565b600160149054906101000a900460ff1681565b6000809054906101000a900473ffffffffffffffffffffffffffffffffffffffff1673ffffffffffffffffffffffffffffffffffffffff163373ffffffffffffffffffffffffffffffffffffffff161415156107f657600080fd5b80600160006101000a81548173ffffffffffffffffffffffffffffffffffffffff021916908373ffffffffffffffffffffffffffffffffffffffff16021790555050565b610842610b00565b600080600160009054906101000a900473ffffffffffffffffffffffffffffffffffffffff16915063b7ab4db57c01000000000000000000000000000000000000000000000000000000000290508060005260008060046000808665fffffffface8f180156002573d6000803e3d6000f35b600160009054906101000a900473ffffffffffffffffffffffffffffffffffffffff1673ffffffffffffffffffffffffffffffffffffffff1663c476dd408484846040518463ffffffff167c0100000000000000000000000000000000000000000000000000000000028152600401808473ffffffffffffffffffffffffffffffffffffffff1673ffffffffffffffffffffffffffffffffffffffff16815260200183815260200180602001828103825283818151815260200191508051906020019080838360005b8381101561099857808201518184015260208101905061097d565b50505050905090810190601f1680156109c55780820380516001836020036101000a031916815260200191505b50945050505050600060405180830381600087803b15156109e557600080fd5b6102c65a03f115156109f657600080fd5b505050505050565b600160009054906101000a900473ffffffffffffffffffffffffffffffffffffffff1673ffffffffffffffffffffffffffffffffffffffff1663d69f13bb83836040518363ffffffff167c0100000000000000000000000000000000000000000000000000000000028152600401808373ffffffffffffffffffffffffffffffffffffffff1673ffffffffffffffffffffffffffffffffffffffff16815260200182815260200192505050600060405180830381600087803b1515610ac257600080fd5b6102c65a03f11515610ad357600080fd5b5050505050565b600160009054906101000a900473ffffffffffffffffffffffffffffffffffffffff1681565b6020604051908101604052806000815250905600a165627a7a723058200947133753de96f3665e24b3705ed4cf0f6479a67ff9f5cd2e60743619f18b480029",
  "source": "//! Copyright 2017 Peter Czaban, Parity Technologies Ltd.\n//!\n//! Licensed under the Apache License, Version 2.0 (the \"License\");\n//! you may not use this file except in compliance with the License.\n//! You may obtain a copy of the License at\n//!\n//!     http://www.apache.org/licenses/LICENSE-2.0\n//!\n//! Unless required by applicable law or agreed to in writing, software\n//! distributed under the License is distributed on an \"AS IS\" BASIS,\n//! WITHOUT WARRANTIES OR CONDITIONS OF ANY KIND, either express or implied.\n//! See the License for the specific language governing permissions and\n//! limitations under the License.\n\npragma solidity ^0.4.15;\n\nimport \"./Owned.sol\";\nimport \"./ValidatorSet.sol\";\n\ncontract OuterSet is Owned, ValidatorSet {\n\t// System address, used by the block sealer.\n\taddress constant SYSTEM_ADDRESS = 0xfffffffffffffffffffffffffffffffffffffffe;\n\t// `getValidators()` method signature.\n\tbytes4 constant SIGNATURE = 0xb7ab4db5;\n\n\tevent FinalizeChange(address[] _new_set);\n\n\tmodifier only_system_and_not_finalized() {\n\t\trequire(msg.sender == SYSTEM_ADDRESS && !finalized);\n\t\t_;\n\t}\n\n\tmodifier only_inner_and_finalized() {\n\t\trequire(msg.sender == address(innerSet) && finalized);\n\t\t_;\n\t}\n\n\tInnerSet public innerSet;\n\t// Was the last validator change finalized.\n\tbool public finalized;\n\n\tfunction setInner(address _inner) public only_owner {\n\t\tinnerSet = InnerSet(_inner);\n\t}\n\n\t// For innerSet.\n\tfunction initiateChange(bytes32 _parent_hash, address[] _new_set) public only_inner_and_finalized {\n\t\tfinalized = false;\n\t\tInitiateChange(_parent_hash, _new_set);\n\t}\n\n\t// For sealer.\n\tfunction finalizeChange() public only_system_and_not_finalized {\n\t\tfinalized = true;\n\t\tinnerSet.finalizeChange();\n\t\tFinalizeChange(getValidators());\n\t}\n\n\tfunction getValidators() public constant returns (address[]) {\n\t\taddress addr = innerSet;\n\t\tbytes4 sig = SIGNATURE;\n\t\tassembly {\n\t\t\tmstore(0, sig)\n\t\t\tlet ret := call(0xfffffffface8, addr, 0, 0, 4, 0, 0)\n\t\t\tjumpi(0x02,iszero(ret))\n\t\t\treturndatacopy(0, 0, returndatasize)\n\t\t\treturn(0, returndatasize)\n\t\t}\n\t}\n\n\tfunction reportBenign(address validator, uint256 blockNumber) public {\n\t\tinnerSet.reportBenign(validator, blockNumber);\n\t}\n\tfunction reportMalicious(address validator, uint256 blockNumber, bytes proof) public {\n\t\tinnerSet.reportMalicious(validator, blockNumber, proof);\n\t}\n}\n\ncontract InnerSet {\n\tOuterSet public outerSet;\n\n\tmodifier only_outer() {\n\t\trequire(msg.sender == address(outerSet));\n\t\t_;\n\t}\n\n\tfunction getValidators() public constant returns (address[]);\n\tfunction finalizeChange() public;\n\tfunction reportBenign(address validator, uint256 blockNumber) public;\n\tfunction reportMalicious(address validator, uint256 blockNumber, bytes proof) public;\n}\n",
  "sourcePath": "/home/yongwen/work/dlt/private-network/contracts/validator/contracts/interfaces/RelaySet.sol",
  "compiler": {
    "name": "solc",
    "version": "0.4.18+commit.9cf6e910.Emscripten.clang"
  },
  "schemaVersion": "1.0.1",
  "updatedAt": "2018-01-19T06:38:42.101Z"
}